:02000004A00357
:10F80000680C002025F903A02DF903A02FF903A00F
:10F8100000000000000000000000000000000000E8
:10F8200000000000000000000000000031F903A00B
:10F83000000000000000000033F903A035F903A028
:10F8400000F002F800F03EF80CA030C80838241888
:10F850002D18A246671EAB4654465D46AC4201D108
:10F8600000F030F87E460F3E0FCCB64601263342FC
:10F8700000D0FB1AA246AB4633431847F0060000FF
:10F8800010070000103A02D378C878C1FAD852079E
:10F8900001D330C830C101D504680C607047000046
:10F8A0000023002400250026103A01D378C1FBD89C
:10F8B000520700D330C100D50B6070471FB51FBD84
:10F8C00010B510BD00F021FB1146FFF7F7FF00F067
:10F8D00046F800F039FB03B4FFF7F2FF03BC00F079
:10F8E0003DFB0000054801688D4605480168054A52
:10F8F000054B1360084700BF00BF00BF000000A019
:10F90000040000A060000240010000000449034818
:10F910000860704702490148086070470024F400FD
:10F92000000000200748804707480047FEE7FEE741
:10F93000FEE7FEE7FEE7FEE704480549034A054BFC
:10F940007047000015F903A041F803A068080020E3
:10F95000680C002068080020401EFDD27047064851
:10F9600000F00CF80120800700F01BF800F059F9B6
:10F9700000F04EFAFCE70000402C0140816A3F2273
:10F98000920491438162816A092292041143816247
:10F990004168C02291434160416840221143416067
:10F9A0007047002101618022C2600D220260416027
:10F9B000C1600321C16001218160704708B5002347
:10F9C000009393420AD2CB5C036043699B06FCD54B
:10F9D00043695B06FCD5009B5B1CF1E70068694648
:10F9E000087008BD18B500230093934208D24369FC
:10F9F000DB07FCD00368009C0B55009B5B1CF3E706
:10FA000018BD052000020268F8498A634268CA638B
:10FA10008268F64940310A60C2684A6002698A60B9
:10FA20004269CA6082690A61C0694861704730B53D
:10FA3000EF4A0020ED49D343441E0A630B6385005F
:10FA40006D18AC63401C0828F7D330BDF7B5E94802
:10FA50001546824203D26A18521E824201D3002008
:10FA6000FEBDE24A0120106200248F080BE00098DE
:10FA7000A6003018401C00F034FA00990002895D9D
:10FA80000843A851641CA742F1D80120FEBDD74904
:10FA900002200862002005220146520783029B18BB
:10FAA0001960401CFE28F9D37047D048022101623A
:10FAB000002102151160012101621F20CC4A800142
:10FAC0008263D143C163836B934204D1C06B88428C
:10FAD00001D1012070470020704700B5FFF7D7FF24
:10FAE000FFF7E3FFC44A0021517000BD38B504465A
:10FAF00034301022FF21054600F0CDF9002805D052
:10FB00007D210822C900284600F0A0F9E122D20098
:10FB100004212046FFF79AFF032252021021201DE4
:10FB2000FFF794FF05222046120220211430FFF730
:10FB30008DFF0122920210212846FFF787FF07223E
:10FB40002046120204214430FFF780FF5520694609
:10FB50000870AA4A04216846FFF778FFA6490120E9
:10FB6000487038BD30B585B00446032110224902E3
:10FB7000684600F06BF910222146684600F078F9DB
:10FB8000012400282DD0E1210422C900684600F09C
:10FB90005DF968460078002820D020281CD2974DB7
:10FBA00004220835294604A800F050F904990020E1
:10FBB000224682400A4202D1401C2028F8D36A46DD
:10FBC0001278824208D98440A14304912A46042134
:10FBD00004A8FFF73BFF01E0FFF77FFF002005B01F
:10FBE00030BD854844700120F9E71CB583490422E3
:10FBF0000831684600F02AF90024009801221146D5
:10FC0000A140014202D1641C202CF8D3E12104223E
:10FC1000C90001A800F01AF968460079001BC0B2BB
:10FC20001CBD7548002101704170704774497920EE
:10FC3000087001228007C1E671491F200870012267
:10FC40009007BBE6F8B5012295076D492846FFF7F6
:10FC5000C9FE6B4C20787F280BD00922611C9007CD
:10FC6000FFF7C0FE0A21204600F022F9002804D048
:10FC700095E00122624928466DE05F4807254078FB
:10FC80002D02002802D12879552810D0FFF7CFFE89
:10FC90002178B22962D019DC5A4D31292DD010DCDF
:10FCA000022922D0112946D0212978D193E0207849
:10FCB000B128EDD0B228EBD0B328E9D07E20207057
:10FCC000E6E7B0294DD0B12969D15AE0C22976D0F2
:10FCD00006DCB32960D0C02967D0C1295FD168E0B4
:10FCE000C32970D0C4295AD171E0F92102228900B8
:10FCF000434800F0ABF802225FE0E01C00F0F1F8AE
:10FD00000602A078A1790643E0790702207A0F4322
:10FD1000002800D07619FFF789FF01203A463849BC
:10FD20008007FFF75FFE324639463548FFF78EFE03
:10FD3000002837D133E0E01C00F0D3F80102A078AE
:10FD4000A3790143E0790202207A1A43002800D007
:10FD5000491901208007FFF731FEF8BDFFF7BDFE0E
:10FD6000E6E7A078002801D0FFF7B7FEFFF75EFFB7
:10FD700048222349D006FFF735FE2148FFF7B6FE9B
:10FD800010E0FFF753FF10221D499006FFF72AFEEF
:10FD90001B48FFF7E7FECBE72879552802D0FFF78D
:10FDA0004BFFF8BDFFF742FFF8BDFFF770FEF9E724
:10FDB00005E0FFF71AFF207001221149C9E701226F
:10FDC0001149C6E7FFE708227D21C900C1E72022CB
:10FDD00005210902BDE7FFF714FE0C484168012226
:10FDE000120411434160FFF77DFDF8BD00000240A1
:10FDF0005A5A5A5A00F803A00400002004070000D1
:10FE000008000020000000A0E703000000350140CA
:10FE100070B50C4C2078002802D0FFF713FF70BD9E
:10FE20000122950708492846FFF7DCFD06480078BF
:10FE30007F28F4D1012204492846FFF7BFFD0120A5
:10FE4000207070BD040000200800002010B50023C1
:10FE500002E0CC5CC4545B1C9342FAD3012010BD79
:10FE6000002301E0C1545B1C9342FBD30120704787
:10FE700030B500230BE0C55CCC5CA54202D200206B
:10FE8000C04330BDA54201D9012030BD5B1C934267
:10FE9000F1D3002030BD10B5002305E0C45C8C42D6
:10FEA00001D0002010BD5B1C9342F7D3012010BD90
:10FEB00010B503460078002905D0012903D0022996
:10FEC00003D001220AE0012010BD59784018FF2814
:10FED000F9D1002010BD9C5C6040521C8A42FAD3CC
:10FEE00010BD0378C2781946437812061B021943E5
:10FEF0008378C0781B04194311430902090A0006DC
:10FF000008437047704770477047754600F022F805
:10FF1000AE46050069465346C008C000854618B085
:10FF200020B5FFF709FD60BC00274908B64600264A
:10FF3000C0C5C0C5C0C5C0C5C0C5C0C5C0C5C0C599
:10FF4000403D49008D4670470446C046C0462046A5
:10FF5000FFF7C1FC0048704708080020014918203D
:10FF6000ABBEFEE726000200704700008CFF03A036
:10FF7000000000200800000084F803A094FF03A004
:10FF800008000020600C0000A0F803A00024F4008A
:04FF9000000000006D
:04000005A003F8411B
:00000001FF
