:020000040000FA
:10000000000400200D010000210100002301000078
:1000100000000000000000000000000000000000E0
:1000200000000000000000000000000025010000AA
:10003000000000000000000027010000290100006E
:100040002B0100002B0100002B0100002B01000000
:100050002B0100002B0100002B0100002B010000F0
:100060002B0100002B0100002B0100002B010000E0
:100070002B0100002B0100002B0100002B010000D0
:100080002B0100002B0100002B0100002B010000C0
:100090002B0100002B0100002B0100002B010000B0
:1000A0002B0100002B0100002B0100002B010000A0
:1000B0002B0100002B0100002B0100002B01000090
:1000C0000D480E49486008464068491508430B49E9
:1000D00048600B480B49086048608860C860086148
:1000E00048618861C8610720000207494860802094
:1000F0000860704700BFFEE7FFFF010000350140C8
:10010000FFFF000040240040402C01400A48804787
:100110000A4801680A4A0B4B1360084700BF00BF3A
:10012000FEE7FEE7FEE7FEE7FEE7FEE706480749D3
:10013000054A074B70470000C1000000040000A002
:1001400060000240010000000000002000040020C8
:0C0150000000002070477047704700005E
:040000050000010DE9
:00000001FF
