:020000040000FA
:1000000000040020CD000000E7000000E90000002F
:1000100000000000000000000000000000000000E0
:10002000000000000000000000000000EB000000E5
:100030000000000000000000ED000000EF000000E4
:10004000F1000000F1000000F1000000F1000000EC
:10005000F1000000F1000000F1000000F1000000DC
:10006000F1000000F1000000F1000000F1000000CC
:10007000F1000000F1000000F1000000F1000000BC
:10008000F1000000F1000000F1000000F1000000AC
:10009000F1000000F1000000F1000000F10000009C
:1000A000F1000000F1000000F1000000F10000008C
:1000B000F1000000F1000000F1000000F10000007C
:1000C00001480168084700BF04F803A00C488047B6
:1000D0000C4801688D460C4801680C4A0C4B1360B3
:1000E000084700BF00BFFEE7FEE7FEE7FEE7FEE7CA
:1000F000FEE7000007480849064A084B7047000021
:1001000021010000000000A0040000A060000240E7
:10011000010000000000002000040020000000207A
:10012000F8B5824840680121090488437F49486046
:100130000F20800100787E4908700F20800100792F
:1001400048700F208001007A08710F208001007B29
:1001500048710F208001008A08810F208001808A69
:1001600088810F208001007E4407640F6F488068FB
:10017000FF21F93108400646204630436B4988602C
:100180000F208001007F7E21084004466948806A74
:1001900081210840064620463043664988621F2078
:1001A00040010078624948741F204001007A0874B9
:1001B0001F204001407A08751F204001807A487551
:1001C0001F204001C07A08761F204001007B48763E
:1001D0001F204001407B08771F204001807B48772B
:1001E000072000020478552C19D1081500885049C1
:1001F0002039088008154088888008158088088183
:100200000815C0888881081500890882081540896A
:1002100088820815808908830815C089888305208D
:100220000002006844498863052000024068C863F2
:100230000520000280684049403108600520000226
:10024000C06848600520000200698860052000023F
:100250004069C8600520000280690861052000022D
:10026000C0694861084680694008400088610320F1
:10027000400200882E49403908800320400240880F
:100280008880032040028088088103204002C088C3
:1002900088810320400200890882032040024089AF
:1002A0008882032040028089088303204002C0899D
:1002B000888320484068400840001E4948601F4825
:1002C0004068032108431D494860084680690321AE
:1002D00008431A49886100200090002513E0002798
:1002E00000E07F1C012000038742FAD31348006816
:1002F0008407A40F022C00D007E00F2D01D10120AC
:100300000090681CC5B2102DE9DB00BF00980128E1
:1003100004D100F015F8FFF7D3FE06E0034840686B
:1003200001210904084301494860F8BD0035014036
:10033000802400400034014000000240802D014034
:1003400012480069002800D17047BFF35F8F00207A
:100350000E4A5061906105204007D0610C48106240
:10036000012107E0094881610020084AD06110623C
:10037000481CC1B20729F5DD0520044A5061BFF3CE
:100380004F8FBFF36F8F0120DEE7000080ED00E0AC
:100390002300020370477047704700000000000010
:1003A000000000000000000000000000000000004D
:1003B000000000000000000000000000000000003D
:1003C000000000000000000000000000000000002D
:1003D000000000000000000000000000000000001D
:1007F00000000000000000005A5A5A5AA5A5A5A5FD
:04000005000000CD2A
:00000001FF
