:020000040800F2
:1000000078A80020190200088F1300089511000835
:100010008D130008F1040008696C0008000000005E
:10002000000000000000000000000000E54C000897
:10003000490B000800000000FF19000815620008C5
:10004000C16C0008FD1900085D62000877270008F0
:10005000590D0008B11B0008650B0008690B00086A
:100060006B0B00086D0B00086F0B0008790A000885
:100070007B0A00087D0A00087F0A0008810A000840
:10008000830A0008850A0008D70300081F6B0008D0
:10009000656C0008FD040008FF040008730B0008ED
:1000A0005F62000865620008636200086162000820
:1000B00067620008696200086B6200089911000815
:1000C000971100089D1100089B1100084B2800089B
:1000D0004D280008596800085B6800085D68000842
:1000E000670B0008752700081D6B00087362000885
:1000F000796200087762000875620008D903000879
:10010000510E0008492800086D6200084F280008B9
:100110007B6200087D6200086F620008716200085F
:10012000870A0008890A00088B0A00088D0A00085F
:1001300000F002F800F05CF80AA090E8000C82449D
:100140008344AAF10107DA4501D100F051F8AFF27A
:10015000090EBAE80F0013F0010F18BFFB1A43F0A5
:10016000010318471C7900003C7900000A444FF055
:10017000000C10F8013B13F0070408BF10F8014B06
:100180001D1108BF10F8015B641E05D010F8016B4B
:10019000641E01F8016BF9D113F0080F1EBF10F8AF
:1001A000014BAD1C0C1B09D16D1E58BF01F801CBD2
:1001B000FAD505E014F8016B01F8016B6D1EF9D555
:1001C0009142D6D37047000000230024002500266A
:1001D000103A28BF78C1FBD8520728BF30C148BFAA
:1001E0000B6070471FB507F06FFB1FBD10B510BD4A
:1001F00000F0B5F81146FFF7F5FF06F087FD00F0B7
:10020000D3F803B4FFF7F2FF03BC00F0DDF8000001
:1002100080F30888704700000348004703480449FA
:10022000044A054B704700003101000878A0002007
:1002300078A8002078A4002078A4002030BF704760
:1002400020BF704740BF7047BFF36F8F7047BFF349
:100250004F8F7047BFF35F8F704701DF7047EFF339
:100260001480704780F31488BFF36F8F7047EFF3EB
:100270000980704780F309887047EFF30880704762
:1002800080F30888704762B6704772B67047EFF324
:100290001080704771B6704761B67047EFF31380F6
:1002A000704780F311887047EFF31280704740BAAF
:1002B000704700BA704702F0FF0343EA032242EAA4
:1002C000024200F02CB84FF0000200B513469446ED
:1002D0009646203922BFA0E80C50A0E80C50B1F19E
:1002E0002001BFF4F7AF090728BFA0E80C5048BFB2
:1002F0000CC05DF804EB890028BF40F8042B08BF50
:10030000704748BF20F8022B11F0804F18BF00F84B
:10031000012B70477047704770474FF00002042967
:10032000C0F0128010F0030C3FF4CFAFCCF1040CFE
:10033000BCF1020F18BF00F8012BA8BF20F8022B58
:10034000A1EB0C01FFF7C1BF5FEAC17C24BF00F83D
:10035000012B00F8012B48BF00F8012B70477546B0
:1003600000F028F8AE4605006946534620F0070025
:10037000854618B020B5FFF751FFBDE820404FF08B
:1003800000064FF000074FF000084FF0000B21F07F
:100390000701AC46ACE8C009ACE8C009ACE8C0094C
:1003A000ACE8C0098D4670470446AFF30080204694
:1003B000FFF727FF0048704718A00020014870474A
:1003C000704700BF1CA0002001491820ABBEFEE70B
:1003D000260002007047704770470029816802D0EC
:1003E00041F4A00101E021F4A00181607047000008
:1003F00070B5374C00216218435C92F8C4209A42D1
:100400005FD094F8C000F0B3401E10F0FF00314EF2
:10041000314D84F8C00017D040F20F112C4806F07F
:1004200050FC84F80F013146284600F045FC0028B6
:1004300008BF70BD4FF488722549284600F09AFC29
:10044000002808BF70BD3AE04FF4887200212048B0
:1004500006F0DBFC04F1D30210234FF0FF0C00BFC9
:1004600082F801C002F802CF5B1EF9D1552084F852
:100470000E0140F20F11164806F023FC302284F8DA
:100480000F01002100E01AE004F1800006F0BDFC3D
:100490001249134800F010FC802200210C4806F09D
:1004A000B4FC1049104800F007FC3146284600F023
:1004B00003FC4FF488720649284600F05BFC0020DC
:1004C00070BD491C102996DB08490120087070BDD9
:1004D000C08B00200F79020800780208FFFF030894
:1004E00000800208FF7F0508000004081881002032
:1004F000FEE7C1B2000A40EA01207047704770472A
:100500002DE9F05FA24CD4F8440CA24F388010F4CF
:10051000004F08BFBDE8F09F47F6FF799E4DDFF81A
:100520007CA29F4EDFF87CB2C4F8449C388810F05F
:100530000F00307034D004EB8000D0F8001C1FFA9C
:1005400081F818F4004F0ED0D0F8001C89B221F0C9
:10055000700121F47041C0F8001C30780AEB800073
:1005600050F8040C804718F0800F11D0307804EB5D
:100570008000D0F8001C89B221F0F00121F4E041A4
:10058000C0F8001C30780BEB800050F8040C80475A
:10059000D4F8440C388010F4004FC5D1BDE8F09F6A
:1005A000D4F8000CC0F3013000032880D4F8000C0C
:1005B000C0F3011000016880D4F8000C80B220F074
:1005C000700020F4804080F40050C4F8000CD4F88F
:1005D000000C80B220F4415020F4804080F02000D4
:1005E000C4F8000C388810F0100FD4F8000C80B25A
:1005F00032D010F0800F5ED0D4F8000C80B220F022
:10060000F00020F4E040C4F8000C00F0C9FDD4F87C
:10061000000C298880B220F0700020F4804011F492
:10062000805F18BF80F4805011F4005F18BF80F421
:100630000050C4F8000CD4F8000C698880B220F493
:10064000415020F4804011F0100F18BF80F01000CE
:1006500011F0200F7CD02BE020F0F00020F4E040DF
:10066000C4F8000C00F09CFDD4F8000C298880B27E
:1006700020F0700020F4804011F4805F18BF80F4F7
:10068000805011F4005F18BF80F40050C4F8000CD3
:10069000D4F8000C698880B220F4415020F48040E6
:1006A00011F0100F18BF80F0100011F0200F6AD069
:1006B00080F0200067E010F4006F2FD0D4F8000C19
:1006C00080B220F0700020F47040C4F8000C05F0F7
:1006D0007FFAD4F8000C298880B220F0700020F452
:1006E000804011F4805F18BF80F4805011F4005FE7
:1006F00018BF80F40050C4F8000CD4F8000C6988CE
:1007000080B220F4415020F4804011F0100F18BF47
:1007100080F0100011F0200F35D0C9E710F4004F21
:100720003FF436AFD4F8000C80B220F0700020F413
:100730007040C4F8000C01F0C5F8D4F8000C29880A
:1007400080B220F0700020F4804011F4805F00E05F
:1007500019E018BF80F4805011F4005F18BF80F4D6
:100760000050C4F8000CD4F8000C698880B220F462
:10077000415020F4804011F0100F18BF80F010009D
:1007800011F0200F94D1C4F8000CBDE8F09F0000D8
:1007900000500040348000203A8100205480002026
:1007A0002A810020388000200A4901EB8000D0F81F
:1007B000001C11F4804F08BF7047D0F8001C89B2AC
:1007C00021F0700121F4E04141F48041C0F8001CA7
:1007D00070470000005000400A4901EB8000D0F84B
:1007E000001C11F0400F08BF7047D0F8001C89B200
:1007F00021F0700121F4E04141F04001C0F8001CFB
:10080000704700000050004002480021C170817014
:100810007047000000800020064901EB8000D0F8FE
:10082000001C89B221F4B87121F4E041C0F8001C29
:100830007047000000500040014900208860704768
:1008400000800020114910B50A680628117801F0CF
:100850007F0102BF01295379002B05D0212904BF54
:1008600003280B4910D108E09078222808BF0949D5
:1008700003D0212808BF084906D129B10020916181
:1008800050828847002010BD022010BD2C8100201E
:10089000C1080008DD080008B5080008014905F096
:1008A00031BC000080800020014905F02BBC000015
:1008B00078800020014905F025BC000090800020D0
:1008C00000281CBF034870470120034909680882BB
:1008D00000207047748000202C810020014905F021
:1008E00011BC00008880002005490968C9780429E6
:1008F00084BF00207047034A02EBC10105F002BC2F
:100900002C810020C880002000290CBF0028022074
:1009100070470000074909680A7802F07F02212A1F
:100920000EBF0B2802207047C878034908600020DA
:10093000704700002C81002074800020284810B5EA
:10094000006800218172C1722649C9794172002074
:1009500004F0D8FE4FF40071002004F0CFFF102106
:10096000002004F09FFF1821002004F01FFF5821F1
:10097000002004F079FF0020FFF74EFF1A4890F89E
:100980002C10002004F022FF002004F05BFF4FF445
:10099000C061012004F0B2FF4FF48071012004F027
:1009A00063FF4FF48271012004F000FF4021012019
:1009B00004F06AFF4021012004F008FF4FF4405189
:1009C000012004F025FF2021012004F06BFF0749DE
:1009D00001200860BDE81040002004F09BBE00002C
:1009E0002C810020E8780008988000200C810020ED
:1009F00006480068807A002808BF7047052004492F
:100A0000086001210348FFF7E8BC00002C810020AA
:100A10000C81002000240140014904200860704737
:100A20000C8100207047704710B500F085FB084826
:100A300000240068847200F0E3FF06484460064A20
:100A40004FF43F41118001600448046010BD000074
:100A50002C810020405C0040388100200C81002067
:100A6000044810214160642141810121017502F097
:100A70000DBB000000A00020704770477047704712
:100A80007047704770477047704770477047000065
:100A90002DE9F05FDFF89C80274F4FF03009D8F840
:100AA000001001F11005088A0E7A002808BF042EF4
:100AB00024D0AC88A04294BF0426022638BF044646
:100AC000A0B2A968824688478346002000F0FAFA5F
:100AD00001465246584606F0C9F85146002004F037
:100AE000D3FE28881549001B288068882044688028
:100AF000A7F800904FF44050088016E010480178A5
:100B0000012903D00726102038800EE00D4A00216D
:100B100012684FEA02424FEAD23202F1804202F5F5
:100B2000C0425160A7F800900170D8F8000006722A
:100B3000BDE8F09F2C8100203C8100203A810020FC
:100B400026810020505C00407047000003494A683D
:100B50004B689B1A8342FBD3704700000080002043
:100B600005F07ABF7047704770477047704700F0D4
:100B7000D7BB70470149086070470000140401406A
:100B800010B5837920490268A3B3D1F800349343A8
:100B9000C1F80034D1F8042403689A43C1F804244E
:100BA000027904680A44D2F800342343C2F80034BE
:100BB000D1F8082403689A43C1F80824D1F80C241A
:100BC00003689A43C1F80C244279102A0AD101F52E
:100BD00081610A6803681A430A604A680068024330
:100BE0004A6010BD1144D1F8002400680243C1F8E6
:100BF000002410BDFFE700790844D0F800149143A9
:100C0000C0F80014F5E700000000014010B54FF4F3
:100C1000887200211B4806F0F8F81A4C102104F1E4
:100C2000D300FF22427000F8022F491EFAD155204E
:100C300084F80E0140F20F11124806F042F884F8D1
:100C40000F013022002104F1800006F0DEF80E4989
:100C50000E4800F031F8802200210A4806F0D5F84D
:100C60000B490C4800F028F80C4C0B49204600F0CA
:100C700023F82046BDE810404FF48872014900F087
:100C800079B80000C08B0020FFFF03080080020835
:100C9000FF7F0508000004080F79020800780208A9
:100CA00001490320086070470C8100200149C86099
:100CB000704700000020024070B505460C4600F069
:100CC000A7F8601B012101EBD0263520FFF7EEFFCE
:100CD0000024B44209D205EBC42000F009F804282E
:100CE00008BF641CF5D0002070BD012070BD00005D
:100CF00070B5054640F6FF76304600F095F80428BA
:100D000013D10A4C206940F002002061656120691E
:100D100040F040002061304600F086F8012804D001
:100D2000216941F6FD721140216170BD0020024031
:100D300008490420CA68D20701D001207047CA6858
:100D4000520701D502207047C968C906FBD50320A8
:100D500070470000002002407047000004490A6804
:100D600022F010020A600A6802430A60704700001D
:100D7000002002402DE9F04106460F46154600F0DE
:100D800047F83520FFF792FF5FF00004B4EB950FB2
:100D90000CD257F8241006EB840000F00BF804285E
:100DA00008BF641CF2D00020BDE8F0810120BDE83E
:100DB000F0810000F0B505460E460F2000F034F833
:100DC000042816D10B4C206940F0010020612E80D0
:100DD0000F2000F029F841F6FE77042804D1300CEA
:100DE00068800F2000F020F8012802D021693940E6
:100DF0002161F0BD0020024004490A6802F0380277
:100E00000A600A6802430A6070470000002002403E
:100E10000348024941600349416070472301674527
:100E200000200240AB89EFCD00B50346FFF780FFFD
:100E300005E0FF20401EFDD1FFF77AFF5B1E012871
:100E400002D1002BF5D101E0002B00D1052000BD1F
:100E5000704700002DE9F04383B001215C2000F0D1
:100E6000EFFD1024DFF82C81ADF8004048258DF807
:100E700003506946404600F0A9F80220ADF8000092
:100E8000454F8DF803506946384600F09FF82025FD
:100E9000ADF8005003268DF802608DF803406946D6
:100EA000384600F093F8ADF800508DF802608DF8E8
:100EB00003406946404600F089F8E002ADF80400BE
:100EC00001248DF8064004258DF8075001A94046FD
:100ED00000F07CF84FF40069ADF804908DF80640FE
:100EE0008DF8075001A9404600F070F86003ADF896
:100EF00004008DF806408DF8075001A9404600F027
:100F000065F8ADF804908DF806408DF8075001A9FA
:100F1000384600F05BF86702ADF804708DF80640C3
:100F20008DF8075001A9404600F050F81B48426870
:100F30000A2143689B1A8B42FBD3ADF80050DFF8BF
:100F400060808DF8026018248DF8034069464046A1
:100F500000F03CF80820ADF800008DF80350694619
:100F6000404600F033F8ADF800708DF802608DF85F
:100F700003406946404600F029F84FF48060ADF820
:100F800000008DF803506946404600F01FF803B09A
:100F9000BDE8F08300180140000C014000800020F3
:100FA0000008014010B58A0721F003040649120F1A
:100FB00021440F238C6893409C438C608B68904045
:100FC00003438B6010BD000000000140F0B5CB78FA
:100FD0000022DC0603F00F0301D58C7823430C8834
:100FE0000F2714F0FF0F4FF0010C1CD0D0F8005069
:100FF0000E880CFA02F42640A64210D1960007FA99
:1010000006FE25EA0E0E03FA06F5CE7845EA0E0531
:10101000282E00D14461CE78482E00D10461521CA4
:10102000082AE5D305600A88FF2A1ED945680022F0
:1010300002F108060CFA06F40E882640A64210D1EA
:10104000960007FA06FE25EA0E0E03FA06F5CE789C
:1010500045EA0E05282E00D14461CE78482E00D1F5
:101060000461521C082AE3D34560F0BD0246926831
:1010700000200A4200D001207047416170470161A1
:1010800070470AB101617047416170470448806848
:1010900041F2883188422CBF0120002070470000B7
:1010A000008000200549096889B201EBC0000449AD
:1010B00001EB4000806880B270470000505C004047
:1010C000006000400449096889B201EBC00003498F
:1010D00051F8100080B27047505C00400060004042
:1010E000044901EB8000D0F8000CC0F301100001AE
:1010F00070470000005000400148C0787047000071
:101100000080002000487047C08B0020014890F804
:10111000C0007047C08B0020014800787047000075
:1011200018810020034890F8080155280CBF0120C1
:1011300000207047C08B00201448D0E9001283685B
:10114000002908BF704712484FEA112C817080F8BF
:1011500004C04FEA114C80F806C04FEA11610172D9
:1011600082724FEA122101734FEA124181734FEAF2
:101170001261017483744FEA132101754FEA134120
:1011800081754FEA1361017670470000E8F7FF1F91
:1011900018800020FEE770477047704770470000D6
:1011A00070B53D4C2168087A022818BF042814D075
:1011B000062818BF082015D021680872374890F813
:1011C0002C10002004F002FB2068007A08285AD076
:1011D000092804BF012070BD5CE0FFF759FC2068BE
:1011E000007AE9E74878052847D1087810F07F0FA2
:1011F00043D12B48CD78DFF8ACC00378002B08BF73
:1012000000200CD003F00100012808D1DCF8001CFC
:1012100089B221F0700121F4E041CCF8001C984221
:1012200023D2C1B28A0002F1804202F5A042D2F874
:10123000006CB6B226F0700626F4E0463143C2F8E0
:10124000001C411CC9B28A0002F1804202F5A04292
:10125000D2F8006CB6B226F0700626F4E0463143B0
:10126000C2F8001C801C9842DBD345F08000CCF80B
:101270004C0C0D480068006A80470C480068806884
:101280008047082098E70A494FF4805008800949B0
:1012900010200880002070BD2C8100209880002044
:1012A00070800020005000403481002030810020F8
:1012B0003A8100203C81002010B582B0FF22082135
:1012C0006846FEF7F8FF6946332004F0E7F99E20F0
:1012D0008DF80000E7208DF801006946102004F029
:1012E000DDF9FF2208216846FEF7E5FF6946332055
:1012F00004F0D4F900208DF800006946082004F0BD
:10130000CDF9022401A9204603F00EFE0228F9D0EF
:10131000012818BF0720012818BF002002B010BD07
:10132000034801218170416801611020FFF722BC50
:101330000080002010B50C4CA078002808BF10BD1C
:10134000E078002818BF10BD60682169401A322873
:1013500098BF10BD10210548FFF788FE002804BF84
:101360000120E07010BD0000008000200018014046
:101370000448817A0448002914BF05210121016035
:1013800070470000C09F00200C810020FEE77047DE
:101390007047F0B50F23C27801784FF0E0240127A1
:1013A00042B3D4F80C2D467802F4E062C2F5E06254
:1013B000120AC2F10405D3408278AE401A4032438B
:1013C00015018A07D20E954021F003010B19D3F8BD
:1013D0000064FF2191408E430D402E43C3F800640A
:1013E0000078410900F01F0004EB81018740C1F83B
:1013F0000071F0BD01F01F008740480904EB800038
:10140000C0F88071F0BDFEF745BF0000024A1140F0
:10141000014302480160704780FFFF1F08ED00E0B4
:101420000822002105F0F1BCFF2101707047000087
:101430002022014905F0CFBC948C0020034991F88B
:10144000B420027091F8B51041707047C08B002035
:101450002DE9F04784B0FFF74FFE002804BF04B029
:10146000BDE8F0872021DFF8FC904846FFF707FE33
:10147000FFF70CFEF0B3032004F088FA3A4C94F81E
:10148000B20020B1012855D0022857D062E094F86C
:10149000B10080B301F05EFC94F8080155283ED0FD
:1014A00002F0A0FF00250127DFF8C080FE02605D8A
:1014B00088B18DF80070D4F8B800C0EBC52000F1F9
:1014C000006000F58020019008EBC520CDE9020600
:1014D000684602F0AFFF6D1C802DE8D3DFF890A0C6
:1014E0000025605D00B38DF80070D4F8B800C0EB43
:1014F000C52001E031E029E000F1006000F5802026
:101500000396CDE9010A684602F088FB08EBC52185
:101510004FF40062164805F01DFC28B116E004F1F6
:10152000C00003F023F8BDE76D1C802DD9D301F076
:101530005FFC06E000F078F818B907E000F01AF850
:1015400020B120214846FFF798FD03E020214846BE
:10155000FFF795FD022004F019FA04B0BDE8F0474A
:10156000FFF752B900180140C08B002000000408AA
:10157000D08C002070B5294C94F8B100002808BF29
:1015800070BD03F0D3FB94F80801552836D003F062
:1015900069FC234E0025605D80B1D4F8B8000123BA
:1015A000C0EBC52000F1006000F5802006EBC522ED
:1015B000D90204F00CF8002808BF70BD6D1C802D06
:1015C000E9D30025605DF8B1D4F8B8000123C0EB81
:1015D000C52000F1006000F58020124AD90203F016
:1015E00037FC002808BF70BD06EBC5214FF4006230
:1015F0000C4805F0AFFB38B1002070BD012104F1AB
:10160000C00003F0F5FFC4E76D1C802DDAD3002085
:1016100003F0EEFB002818BF012070BDC08B002036
:1016200000000408D08C00202DE9F041404F97F8CD
:10163000B100002808BFBDE8F08104F087FE002853
:1016400008BFBDE8F08104F0E3FF002808BFBDE853
:10165000F08197F80801552808D1012107F1C00051
:1016600005F052F8002808BFBDE8F0810025785D3C
:1016700000281CBF0024EE021BD000BF06EB842014
:1016800000F10062D7F8B8100123401A00F10060A1
:1016900002F5802200F58020990204F0F7FF00286F
:1016A00008BFBDE8F0810A20FFF750FA641C022C45
:1016B000E4D36D1C802DDAD34FF0000817F8080032
:1016C00000281CBF00244FEAC82624D0D7F8B80051
:1016D00006EB8425281A00F10060012300F5802024
:1016E000144A990204F06AFF002808BFBDE8F0819F
:1016F00005F1006101F580214FF480620D4805F08D
:1017000029FB10B10020BDE8F0810520FFF71EFA8B
:10171000641C022CDAD308F10108B8F1800FCDD394
:10172000002004F0F1FE002818BF0120BDE8F08180
:10173000C08B0020D08C002010B5802200210448EE
:1017400005F063FBBDE8104002490348FFF7B4BA57
:10175000C08B0020FF7F05080000040810B5302270
:101760000021044805F051FBBDE810400249034840
:10177000FFF7A2BA408C0020FFFF03080080020898
:1017800010B50F4C0D484FF48871606005F099FA60
:1017900020B9616891F80E01552802D0FFF736FA9A
:1017A00004E04FF48872074805F015FB0020207014
:1017B000BDE8104020210448FFF761BC0078020812
:1017C00018810020C08B00200018014070B5164C15
:1017D00094F8B1C0D4F8B830BCF1000F18440ED161
:1017E000A0F10065A5F58025B5F5802F07D20F4B38
:1017F00000EB020C0CEB0306B6F5802F01D30020A2
:1018000070BDFFF7B7FA002808BF70BD012004EBD8
:10181000D521087004EBD621087094F87F000128C8
:1018200018BF012070BD0000C08B0020FFFFFBF738
:1018300070B5144C94F8B0C0D4F8B830BCF1000FB7
:1018400018440ED1A0F10065A5F52035B5F5C03FCF
:1018500007D20D4B00EB020C0CEB0306B6F5C03FB4
:1018600001D3002070BDFFF785FA002808BF70BDC6
:10187000012004EBD52181F8800004EBD62181F80A
:10188000800070BDC08B0020FF7FFDF70B4605492F
:1018900010B5D1F8B8100144184605F09CFA0120A3
:1018A00010BD0000C08B00200B46054910B5D1F8D3
:1018B000BC100144184605F08EFA012010BD00004E
:1018C000C08B00202DE9F05F3D4DDFF8F890DFF888
:1018D000F8802968087A032818BF052815D007283A
:1018E00018BF08205CD029680872384890F82C107E
:1018F000002003F06BFF2868007A082856D00928DA
:1019000004BF0120BDE8F09F57E001F11004088AF0
:1019100089694FF0300AB1B108B3A688864288BF02
:101920000646B0B20746884783462088801B208041
:101930006088304460800020FFF7B4FB01463A46DF
:10194000584600F049F8208848B14FF44050A9F8B3
:1019500000000021084603F097FFA8F800A02088A7
:10196000A188884203D329680320087215E018B1C2
:1019700029680520087210E02A68154B06201072AD
:10198000186800214FEA00404FEAD03000F1804053
:1019900000F5C0404160A8F800A02868007AA2E7DE
:1019A0000C480068C068804708209CE74FF48050CE
:1019B000A9F800001020A8F800000020BDE8F09F62
:1019C0002C8100203A8100203C810020988000205A
:1019D000505C004030810020074B521C520803EB42
:1019E000410108BF704700BF51F804CB20F802CB7B
:1019F000521EF9D1704700000060004070477047E8
:101A00000748012101604FF0000101604160054A73
:101A10004FF4E051118001604FF00000704700006A
:101A2000405C004038810020044A0029D16901D07F
:101A3000014300E08143D161704700000010024083
:101A4000044A0029916901D0014300E0814391617A
:101A500070470000001002400B48016841F001018E
:101A600001604168094A114041600168084A11401B
:101A70000160016821F4802101604268002122F4A4
:101A8000FE02426081607047001002400000FFF8D3
:101A9000FFFFF6FE30B5204A5168204B11F00C01D3
:101AA00003D0042901D0082901D0036011E0516856
:101AB000022401F4701104EB91415468184D14F4A0
:101AC000803F02D05468A40301D5694300E0594324
:101AD00001605168134B01F0F00109095C5C016879
:101AE000E1404160546804F4E064240A1C5D21FA7A
:101AF00004F48460546804F46054E40A1B5DD94023
:101B0000C1605268074B02F44042920B1B1F9A5C63
:101B1000B1FBF2F1016130BD0010024000127A0009
:101B200000093D00707A0008034600205909094A5F
:101B3000012901D1116804E0022901D1116A00E0F4
:101B4000516A03F01F02012393400B4200D0012091
:101B500070470000001002400248406800F00C008E
:101B60007047000000100240034A516821F0F00164
:101B70000143516070470000001002400B490A68A1
:101B800022F480320A600A68B0F5803F22F4802295
:101B90000A6007D0B0F5802F03D1086840F4A02078
:101BA00008607047086840F48030F9E70010024090
:101BB00070470000034A516821F4E061014351601D
:101BC0007047000000100240034A516821F4605140
:101BD00041EAC000506070470010024001490866A9
:101BE0007047000000004242034B5A68084322F449
:101BF0007C1210435860704700100240034A51683D
:101C000021F00301014351607047000000100240C1
:101C10000149086070470000D800424230B50B4CC3
:101C200040F2FF153120FFF77FFF20706068401CF5
:101C30006060207810B96068A842F3D13120FFF7C6
:101C400073FF002800D0012030BD00004881002033
:101C50002DE9F05FFB4D4FF07E09A5F6741428784E
:101C600001284BD0FFF758FA90B9FFF75BFA78B12B
:101C7000D4F86C09A12818BFA02809D0B12818BF32
:101C8000B22805D0B32818BF7F2801D0C4F86C99BA
:101C9000D4F86C09002701264FF0020A4FF07908AA
:101CA0007F287DD07DDA4FF0030B11287AD057DAE8
:101CB0004FF0FF01D8B3012875D0022818BFBDE846
:101CC000F09F287801286FD004F2B240FFF7B6FBEE
:101CD00004F2B440FFF7A8FB04F2B540FFF7A0FB05
:101CE00004F2BD40FFF7A4FB2E20C4F8640984F879
:101CF000B08484F8B16484F8DD84A4E36878B8B172
:101D00000228C5D103F06EF80028C1D1D4F86C09BF
:101D1000A128BDD0A02818BFB128B9D0B22818BFBB
:101D2000B328B5D07F2818BF2128B1D0AEE73DE257
:101D300001F01AF90028ABD100F0F4FF0028A7D079
:101D4000D4F86C09A12818BFA028A1D0B12818BFC9
:101D5000B2289DD0B3281CBF7F28212898D095E7B2
:101D6000212867D031287ED0442818BFBDE8F09FD5
:101D700094F87009012877D0022818BFBDE8F09FB9
:101D80002078FF2809D00321AF4804F09AFFE0B380
:101D90002078FF2818BFBDE8F09F6078FF2804E096
:101DA00066E01FE0CAE249E273E206BFA0780028BD
:101DB000BDE8F09FD4F86009032818BFBDE8F09F84
:101DC0002878012870D0A87898B301286DD002280F
:101DD00018BFBDE8F09FFFF7AFFC002808BFBDE8C3
:101DE000F09F52E0B0287ED025DADFF860B2A0285C
:101DF0007AD0A1285AD0A22818BFBDE8F09F94F845
:101E00007009012830D0022800E0FBE306BF2078EB
:101E10000228BDE8F09FFFF775F9CBF80000E078E5
:101E2000A87001287DD0022804BFA07803F076FDB9
:101E30002BE0E9E311E3B12874D0B22873D0B328C2
:101E400018BFBDE8F09F94F8700901286CD00228F3
:101E500006BF20780128BDE8F09F287801287DD0B2
:101E6000C4F8646901E039E3C6E0FFF74FF991E196
:101E70002878012809D1687860B102280DD004F0D3
:101E800065FA002808BFBDE8F09FC4F8646984F8CB
:101E9000B084D8E200F05EFFF7E702F047FF0028C9
:101EA00008BFBDE8F09FF0E7C9E3E6E3FFF72AF9D2
:101EB0001C21CBF80000C4F8641984F8B084102108
:101EC00084F8B114092184F8B214162184F8B314EB
:101ED000082184F8B41484F8B5A4802284F8B624C8
:101EE00084F8B77401E097E052E084F8B814042154
:101EF00084F8B91484F8BA7484F8BB7490F8B410F8
:101F000084F8BC1490F8B51084F8BD14297884F8CE
:101F1000BE14697884F8BF1490F8B31084F8C01424
:101F200003E075E0AEE0DEE000E1D0F8BC10090EA1
:101F300084F8C114D0F8BC10090C84F8C214D0F88D
:101F4000BC10090A84F8C314D0F8BC1084F8C41477
:101F5000D0F8B810090E84F8C51400E009E1D0F8F3
:101F6000B810090C84F8C614D0F8B810090A84F81F
:101F7000C714D0F8B81084F8C81490F8B01084F8DA
:101F8000C91490F8B10084F8CA0484F8CB845AE2EA
:101F900094F8700901282FD0022806BF20780C2859
:101FA000BDE8F09FFFF7AEF8CBF80000617880F84D
:101FB000B410A17880F8B510E178297021796970A2
:101FC00080F8B210617980F8B310D4F80610627A04
:101FD00009BA21F0FF011143C0F8BC10D4F80A106F
:101FE000627B09BA21F0FF011143C0F8B810C4F8B0
:101FF000646984F8B08426E2C4F8646984F8B08423
:1020000084F8687984F8696984F870A9BDE8F09F5C
:10201000607803F009FD38E794F870090128EBD0E7
:10202000022806BF20784728BDE8F09F28780128BD
:102030000ED0601C03F0C8FC002808BFBDE8F09F6C
:1020400023E70000048B00209081002014810020F1
:10205000687860B102284FF0010104F101000AD054
:1020600004F052FB002808BFBDE8F09F0DE7601C9C
:1020700002F07CFA09E703F0BBFA002808BFBDE8CC
:10208000F09F02E794F870090128B5D0022806BF36
:1020900020780F28BDE8F09F2878012807D0601C21
:1020A000FEF7A6F9002808BFBDE8F09FEDE66878C6
:1020B00050B1022804F101000ED004F0E1F800282C
:1020C00008BFBDE8F09FE0E6601C00F0A1FD00281D
:1020D0007FF4DBAEBDE8F09F02F006FE002808BFEB
:1020E000BDE8F09FD1E62878012806D000F044FB37
:1020F000002808BFBDE8F09FC7E6687840B1022815
:102100000DD004F085FA002808BFBDE8F09FBCE6BA
:1021100002F068F900287FF4B8AEBDE8F09F02F045
:10212000A1FE002808BFBDE8F09FAEE62878012890
:1021300006D0FEF7F7FF002808BFBDE8F09F5BE779
:10214000687840B102280DD004F0D4F8002808BF08
:10215000BDE8F09F50E700F0E5FD00287FF44CAFAC
:10216000BDE8F09F02F0D2FD002808BFBDE8F09F57
:1021700042E7687850B1022804F596600DD004F06B
:1021800077F9002808BFBDE8F09F0CE0C4F8646947
:1021900000F0A1FE84F8B00455E102F00BFE002827
:1021A00008BFBDE8F09FC4F864694CE128780128B5
:1021B00018BF84F8B21428D00F20C4F8640984F83A
:1021C000B0840B2084F8B10484F8B37484F8B46448
:1021D00084F8B5A4112084F8B604212084F8B7044B
:1021E000312084F8B804442084F8B904632084F8CA
:1021F000BA04732084F8BB04822084F8BC049220C3
:1022000084F8BD0484F8BE841DE1687850B10228CA
:1022100004F2B2400BD004F0DFF8002808BFBDE89C
:10222000F09FC9E704F2B24000F030FEC4E702F0CC
:10223000A6FD002808BFBDE8F09FBDE7287801286B
:1022400018BF84F8B1140BD00520C4F8640984F8D1
:10225000B08484F8B27484F8B37484F8B484F2E07F
:10226000687850B1022804F2B1400BD004F0B4F801
:10227000002808BFBDE8F09FE6E704F2B14000F097
:1022800005FEE1E702F07BFD002808BFBDE8F09FF6
:10229000DAE7687810B3022804F2B2402FD004F0D5
:1022A0000DF9002808BFBDE8F09F04F2B44004F027
:1022B00093F8002808BFBDE8F09F04F2B54004F091
:1022C00065F8002808BFBDE8F09F04F2BD4004F0A7
:1022D000A9F8002808BFBDE8F09F05E504F2B24068
:1022E00000F02AFE04F2B44000F0D0FD04F2B54044
:1022F00000F0BCFD04F2BD4000F0DDFDF4E402F0AE
:102300005DFD002808BFBDE8F09F04F2B44002F074
:1023100036FD002808BFBDE8F09F04F2B54002F08A
:1023200023FD002808BFBDE8F09F04F2BD4002F085
:1023300036FD002808BFBDE8F09FD5E494F8700989
:1023400001283FF459AE022827D0032818BFBDE862
:10235000F09FD4F86009032818BFBDE8F09F03215F
:10236000C94804F0AEFC002818BFBDE8F09F6078B3
:10237000217800EB012080B2421C801CAA60C4F8C6
:10238000640984F8B0842878012827D0A878B0B3ED
:1023900001284DD0022851D055E0D4F86009052815
:1023A00018BFBDE8F09F0521B74804F08AFC00285B
:1023B00018BFBDE8F09FE078216809BA21F0FF015D
:1023C00008436860C4F8646984F8B08484F8687964
:1023D00084F8696984F870B9BDE8F09F687878B1CD
:1023E000022891B268684FF0010304F2B14212D0A2
:1023F00004F0E4F8002808BFBDE8F09F23E011E0F6
:10240000A2486968416000F2C141C0E90212067049
:1024100001F004FC17E002F01BFD002808BFBDE836
:10242000F09F10E004F2B140696804F0D4FC0AE0C7
:1024300004F2B1416868FFF737FA04E004F2B141F1
:102440006868FFF723FA84F8687984F8696984F882
:102450007079C4F86C99BDE8F09F94F87009012870
:102460003FF4CAAD022806BFD4F860090528BDE8CC
:10247000F09F0521844804F024FC002818BFBDE823
:10248000F09F2878012811D02068E17800BA20F068
:10249000FF0008436860FEF7B6FF68680068FDF754
:1024A000B7FE68684068BDE8F05F0047687868B1CB
:1024B00002282068E17800BA20F0FF0040EA01001D
:1024C000686007D0BDE8F05F04F01EB8BDE8F05FBB
:1024D00000F08EBCBDE8F05F02F08ABC94F8700991
:1024E00001283FF489AD022830D0032818BFBDE889
:1024F000F09F60782278D4F8601900EB02201FFA70
:1025000080FA0AF10400814218BFBDE8F09F01463D
:102510005D4804F0D6FB002818BFBDE8F09F0AF123
:102520000102AA60287801281FD0A878C8B3012822
:102530006BD0022818BFBDE8F09FA11C6868FFF7A8
:1025400045F9002808BFBDE8F09F9EE4D4F8600973
:10255000052818BFBDE8F09F05214B4804F0B1FBEA
:10256000002818BFBDE8F09F25E7687870B1022801
:1025700091B268684FF0010304F1020212D004F036
:1025800085F8002808BFBDE8F09F7EE43F486968F1
:10259000416000F11201C0E90212067001F04AFF29
:1025A00073E406E003F013F8002808BFBDE8F09FCD
:1025B0006BE4374B6868374900EB030C8C450CD251
:1025C00000EB020C63448B4207D2A11CFEF7D2FB46
:1025D00000287FF45AACBDE8F09F6FF0005100EB8B
:1025E000010C47F6FE739C4528BFBDE8F09F00EB49
:1025F000020C6144994228BFBDE8F09FA11C04F081
:10260000EAFB42E40AE000E02EE0A11C6868FFF764
:102610000FF900287FF439ACBDE8F09F208840BA5C
:10262000A881D4F86019C01C814218BFBDE8F09F92
:10263000002988BF287818BFBDE8F09F25E4687896
:1026400040B1022809D003F081FF002808BFBDE88F
:10265000F09F1AE400F008FF17E402F0CBFB00281B
:1026600008BFBDE8F09F10E40B490C48FEF724FBBF
:1026700000287FF40AACBDE8F09FFFF76FF8002850
:102680007FF403ACBDE8F09F9081002080810020A2
:10269000FF7FFFF7FEF70100FF77020800800008C8
:1026A00070B5FEF7F3FC002640B100F0A1FB02F08C
:1026B00051FB022003F06AF91F4806701F4C94F882
:1026C0006809002808BF70BD94F86909002818BF80
:1026D00070BDFEF7B1F8032003F058F994F87009C3
:1026E000012598B9D4F86009022802D0012806D043
:1026F0000CE0207861780144FF2907D102E02078BE
:102700007F2803D1C4F86C0984F87059FFF7A0FA48
:1027100094F86909002818BF70BD1F20C4F86459D7
:1027200084F8B00484F8686984F8695984F8706999
:102730007E20C4F86C0970BD048B002090810020BD
:102740000B4900207E22C1F86009C1F86C29C1F84C
:10275000640981F8700981F8680981F8690901F64E
:1027600074110870012048700220887070470000C2
:10277000908100207047704710B5FEF747FA01209E
:1027800010BD00002DE9F0412D4C072818BF207026
:1027900020782C4D06264FF43F474FF004080628BA
:1027A0004BD2DFE800F0030F1E242E3BD5F8400C7F
:1027B00080B220F00400C5F8400CFEF7D9FDC5F842
:1027C000407C3AE0D5F8400C80B220F00400C5F817
:1027D000400CFEF7CDFDC5F8407C84F80080BDE8D4
:1027E000F0810220607003202070BDE8F0816078E5
:1027F000401E60706078002808BF84F80080BDE843
:10280000F081D5F8400C80B240F01000C5F8400CC3
:10281000052020700A206070BDE8F0816078401EBD
:1028200060706078002818BFBDE8F081D5F8400CD2
:1028300080B220F01000C5F8400C2670BDE8F08191
:10284000118100200050004070477047704770476A
:102850002DE9F04383B000258046ADF80050ADF877
:102860000450ADF8085000BF00BF00BF00BF00BF5C
:102870003A4F4FF40060C7F8140800BF00BF00BF14
:1028800000BF00BF0001C7F810084FF40079C7F877
:102890001098334C012625706570A570E67025717F
:1028A0006571A571E571C7F814980A20FEF74EF915
:1028B00002AA45F65A21002000F088F825706570BC
:1028C000A570E67025716571A5710021E6716A46F3
:1028D000084600F07BF825706570A570E6702571DC
:1028E0006571A571E57102AA4AF2A551042000F0B4
:1028F0006DF825706570A570E67025716571A5711C
:10290000E67101AA0021042000F060F8BDF8000083
:10291000A0F5B4415A3915D0BDF80400A0F5254101
:10292000A5390FD00F48007803280BD0B8F1000F5D
:1029300004D0C7F810980A20FEF708F903B0002069
:10294000BDE8F083B8F1000F04D0C7F810980A2052
:10295000FEF7FCF803B00120BDE8F0830010014051
:102960000095002020810020F8B500260546ADF82E
:10297000006034463046FFF76BFF002808BFF8BD03
:1029800010480121067046708670C170067146714C
:102990008671C6710E02285D6A4606EB0021084367
:1029A00081B2600800F012F8A01CC4B2102CF2D35F
:1029B00005494FF4007008604FF00A00FEF7C6F8B2
:1029C0000120F8BD00950020101801402DE9F0010C
:1029D0008B4C002304F1100C5FF0040620FA03F581
:1029E00005F001050CF8015C5D1C20FA05F505F009
:1029F00001050CF8025D9B1C751E15F0FF06EDD15C
:102A000004F12000B446082321FA0CF505F0010575
:102A100000F8015C0CF1010521FA05F505F001054E
:102A20005B1E00F8025D0CF1020C13F0FF03EBD10A
:102A300074494FF40046C1F8146800BF00BF00BFDE
:102A400000BF00BFC814C1F8100800BF00BF00BF1E
:102A500000BF00BF00BF00BF00BF00BF00BFC1F884
:102A6000140800BF00BF00BF00BF00BF00BF00BF11
:102A700000BF00BF00BFC1F8100800BF00BF00BF0B
:102A800000BF00BF00BF00BF00BF00BF00BFC1F854
:102A9000140800BF00BF00BF00BF00BF8500DFF803
:102AA00068815A4F14F803C0BCF1000F14BFC1F87D
:102AB0001058C1F81458D8F808CC1CF4006C18BF92
:102AC0004FF0010C07F803C000BF00BF00BF00BFFC
:102AD00000BFC1F8100800BF00BF00BF00BF00BFAB
:102AE00000BF00BF00BF00BF00BFC1F8140800BF97
:102AF00000BF00BF00BF00BF5B1CDBB2202BD1D3E7
:102B0000C1F8105800BF00BF00BF00BF00BFC1F830
:102B1000100800BF00BF00BF00BF00BF00BF00BF64
:102B200000BF00BF00BFC1F8140800BF00BF00BF56
:102B300000BF00BF00BF00BF00BF00BF00BFC1F8A3
:102B4000100800BF00BF00BF00BF00BF00BF00BF34
:102B500000BF00BF00BFC1F8140800BF00BF00BF26
:102B600000BF00BF00BF00BF00BF00BF00BFC1F873
:102B7000100800BF00BF00BF00BF00BF00BF00BF04
:102B800000BF00BF00BFC1F8140800BF00BF00BFF6
:102B900000BF00BF00BF00BF00BF00BF00BFC1F843
:102BA000100800BF00BF00BF00BF00BF00BF00BFD4
:102BB00000BF00BF00BFC1F8140800BF00BF00BFC6
:102BC00000BF00BFC1F810680020108007F110019D
:102BD00003464FF0100C012411F8015B2DB1C3F135
:102BE0000F0504FA05F5284380B25B1CACF1010C1B
:102BF0001CF0FF0CF0D11080BDE8F0017047000020
:102C00000095002000100140000001404095002088
:102C10002DE9F04F91B000248DF810404FF48162FF
:102C20006E46CDE905260546102204A8079200F05D
:102C3000F5FF10222946684604F08CF8DFF8CC80B6
:102C40000125002801BF88F80050012011B0BDE81F
:102C5000F08F40F2044004270797CDE9050604A849
:102C600000F0DCFF9DF80000A0B3294E4FF48079FE
:102C70004FF05A3A4FF0A53B20282CD24FF4FE607B
:102C8000059009A8CDE9060704A800F0C7FFDDF804
:102C90002410002005FA00F20A4209D1421C05FA6C
:102CA00002F20A4201D0401C02E0801C2028F1D32D
:102CB0009DF8002082420ED905FA00F021EA0000BA
:102CC00009904FF4FE60059009A8CDE9060704A815
:102CD00001F0B0FB16E000F0C7FB3470C6F80490BA
:102CE00000F02AFF4FF4FF600B900EA80C90082014
:102CF000CDE90EAB0D908DF828400AA801F09AFBA3
:102D000088F8004011B00020BDE8F08F218100203C
:102D10004C9600200248002101704170704700006D
:102D20002181002000B587B000208DF808004FF405
:102D30008060039004200590CDF810D002A800F028
:102D40006DFF9DF8000055280CBF0120002007B042
:102D500000BD00002DE9F84322480024ADF80040F2
:102D60004178002918BFBDE8F8830127477000F0BB
:102D70004BF900BF00BF00BF00BF00BFF8021A4DF3
:102D8000686000BF00BF00BF00BF00BF4FF4004835
:102D9000C5F800804FF400762E601448047044702B
:102DA0008470C770047144718471C4714FF00A005B
:102DB000FDF7CCFE6E600A20FDF7C8FE6A4641F6BC
:102DC00079110820FFF702FEC5F804800A20FDF7FC
:102DD000BDFE2E603220FDF7B9FE00F09BF9BDE884
:102DE000F883000021810020101801400095002088
:102DF00038B51B490020ADF800004A78002A08BF0A
:102E000038BD487000BF00BF00BF00BF00BF154CF9
:102E10004FF40061616000BF00BF00BF00BF00BF92
:102E20004FF4004121604FF4007525600E494FF0CA
:102E30000102087048708870CA7008714871887102
:102E4000C87165604FF00A00FDF780FE6A460021F8
:102E50000820FFF7BBFD256000F08CF838BD0000AE
:102E600021810020101801400095002000B585B098
:102E700000218DF800104FF47A71CDE9011008207F
:102E80000390684600F0CAFE05B000BD10B586B0DC
:102E9000044600208DF808004FF479700390042058
:102EA0000590CDF810D002A800F0B8FE9DF8030000
:102EB000207006B010BD00B585B000218DF800105F
:102EC0004FF48361CDE9011020200390684600F0A3
:102ED000A5FE05B000BD70B586B04FF4FE60019050
:102EE00004A80426CDE9020600258DF800506846A6
:102EF00000F094FE00240498012101FA04F2024239
:102F000009D1621C01FA02F2024201D0641C02E003
:102F1000A41C202CF1D340F20440019005A8CDE977
:102F200002068DF80050684600F078FE9DF8140007
:102F300006B0001BC0B270BD10B586B004460020BC
:102F40008DF808004FF47970039004200590CDF8B7
:102F500010D002A800F062FE9DF8000020709DF8DD
:102F60000100607006B010BD014800787047000095
:102F700021810020F8B54FF40040ADF80000012495
:102F80001E4F8DF8024004258DF8035069463846DF
:102F9000FEF71CF8E602ADF800608DF802408DF8EF
:102FA000035069463846FEF711F86003ADF800009B
:102FB0008DF802408DF8035069463846FEF706F852
:102FC000ADF800608DF802408DF8035069460C485A
:102FD000FDF7FCFF6002ADF800008DF802408DF8AF
:102FE000035069463846FDF7F1FF064841680A225A
:102FF00043685B1A9342FBD3F8BD00000018014000
:10300000000C014000800020F8B54FF40040ADF8FE
:10301000000001241B4F8DF8024010258DF803504D
:1030200069463846FDF7D2FFE602ADF800608DF83C
:1030300002408DF8035069463846FDF7C7FF60032C
:10304000ADF800008DF802408DF80350694638460F
:10305000FDF7BCFFADF800608DF8024048208DF808
:10306000030069460848FDF7B1FF6002ADF80000B3
:103070008DF802408DF8035069463846FDF7A6FFEB
:10308000F8BD000000180140000C0140F8B54FF4F5
:103090000066ADF8006003248DF8024010201B4F3D
:1030A0008DF8030069463846FDF790FFB000ADF893
:1030B00000008DF8024014208DF803006946384660
:1030C000FDF784FF3001ADF8000001248DF80240C7
:1030D00004258DF8035069463846FDF777FFADF8B3
:1030E00000608DF802408DF8035069460848FDF7EE
:1030F0006DFF6002ADF800008DF802408DF80350BE
:1031000069463846FDF762FFF8BD0000001801402F
:10311000000C0140D3484FF4004CC0F814C84314CD
:10312000C0F8143800BF00BF00BF00BF00BFC1140B
:10313000C0F8141800BF00BF00BF00BF00BF0022CE
:1031400000BF00BF00BF00BF00BFC0F8101800BF25
:1031500000BF00BF00BF00BF00BF00BF00BF00BF77
:1031600000BFC0F8141800BF00BF00BF00BF00BF01
:10317000521C92B2C82AE3D3C0F81038002200BF14
:1031800000BF00BF00BF00BFC0F8101800BF00BFE5
:1031900000BF00BF00BF00BF00BF00BF00BF00BF37
:1031A000C0F8141800BF00BF00BF00BF00BF521C12
:1031B00092B2FA2AE3D3C0F8143800BF00BF00BFB0
:1031C00000BF00BFC0F8101800BF00BF00BF00BFA5
:1031D00000BF00BF00BF00BF00BF00BFC0F8141891
:1031E00000BF00BF00BF00BF00BFC0F8103800BF65
:1031F00000BF00BF00BF00BFC0F8101800BF00BF75
:1032000000BF00BF00BF00BF00BF00BF00BF00BFC6
:10321000C0F8141800BF00BF00BF00BF00BFC0F857
:10322000143800BF00BF00BF00BF00BFC0F81018B7
:1032300000BF00BF00BF00BF00BF00BF00BF00BF96
:1032400000BF00BFC0F8141800BF00BF00BF00BF20
:1032500000BFC0F8103800BF00BF00BF00BF00BFF4
:10326000C0F8101800BF00BF00BF00BF00BF00BF04
:1032700000BF00BF00BF00BFC0F8141800BF00BFF0
:1032800000BF00BF00BFC0F8103800BF00BF00BFC4
:1032900000BF00BFC0F8101800BF00BF00BF00BFD4
:1032A00000BF00BF00BF00BF00BF00BFC0F81418C0
:1032B00000BF00BF00BF00BF00BFC0F810C8C0F80B
:1032C000103800BF00BF00BF00BF00BFC0F810181B
:1032D00000BF00BF00BF00BF00BF00BF00BF00BFF6
:1032E00000BF00BFC0F8141800BF00BF00BF00BF80
:1032F00000BFC0F8143800BF00BF00BF00BF00BF50
:10330000C0F8101800BF00BF00BF00BF00BF00BF63
:1033100000BF00BF00BF00BFC0F8141800BF00BF4F
:1033200000BF00BF00BFC0F8103800BF00BF00BF23
:1033300000BF00BFC0F8101800BF00BF00BF00BF33
:1033400000BF00BF00BF00BF00BF00BFC0F814181F
:1033500000BF00BF00BF00BF00BFC0F8143800BFEF
:1033600000BF00BF00BF00BFC0F8101800BF00BF03
:1033700000BF00BF00BF00BF00BF00BF00BF00BF55
:10338000C0F8141800BF00BF00BF00BF00BFC0F8E6
:10339000103800BF00BF00BF00BF00BFC0F810184A
:1033A00000BF00BF00BF00BF00BF00BF00BF00BF25
:1033B00000BF00BFC0F8141800BF00BF00BF00BFAF
:1033C00000BFC0F8103800BF00BF00BF00BF00BF83
:1033D000C0F8101800BF00BF00BF00BF00BF00BF93
:1033E00000BF00BF00BF00BFC0F8141800BF00BF7F
:1033F00000BF00BF00BFC0F814C8C0F8103800BF3D
:1034000000BF00BF00BF00BFC0F8101800BF00BF62
:1034100000BF00BF00BF00BF00BF00BF00BF00BFB4
:10342000C0F8141800BF00BF00BF00BF00BFC0F845
:10343000103800BF00BF00BF00BF00BFC0F81018A9
:1034400000BF00BF00BF00BF00BF00BF00BF00BF84
:1034500000BF00BFC0F8141800BF00BF00BF00BF0E
:1034600000BF70470010014070B42A484FF400714B
:103470000122018000F1AC0140F211230A80438057
:103480004A8040F2192CA0F804C04FF0030CA1F8B8
:1034900004C040F2592CA0F806C041F2F45CA1F837
:1034A00006C040F2512CA0F808C04FF0190CA1F84A
:1034B00008C043814A8140F2022383818A8100212E
:1034C00000F1200401EB810204EB4202531E0022B2
:1034D0004FF0050C30F81150ACF1010CD54005F05F
:1034E00001055D7030F81150561CF54005F00105DE
:1034F000921C03F8025F1CF0FF0CEBD1491CC9B20F
:103500000729DFD370BC072340F62822114600208C
:1035100000F002B8809500202DE9FF4F84B04FF0F5
:10352000000CFF4B00F00104400803F80C400CF1C4
:10353000010C0CF0FF0CBCF1030FF3D3981C4FF0FF
:10354000080C00BF01F001044470490801F00104B7
:10355000490800F8024FBCF1010CF3D103F112004D
:103560004FF0100C02F001014170510801F001020E
:1035700000F8022F4A08BCF1010CF3D1E9484FF4DE
:103580000045C0F8105800BF00BF00BF00BF00BF1B
:10359000C114C0F8101800BF00BF00BF00BF00BFBB
:1035A00000BF00BF00BF00BF00BFC0F8141800BFBD
:1035B00000BF00BF00BF00BFC0F8145800224FF486
:1035C000005C9C5C002C14BFC0F810C8C0F814C884
:1035D00000BF00BF00BF00BF00BFC0F8101800BF91
:1035E00000BF00BF00BF00BF00BF00BF00BF00BFE3
:1035F00000BFC0F8141800BF00BF00BF00BF00BF6D
:10360000521CD2B2032ADCD34FF40042C0F8102877
:1036100000BF00BF00BF00BF00BFC0F8101800BF50
:1036200000BF00BF00BF00BF00BF00BF00BF00BFA2
:1036300000BFC0F8141800BF00BF00BF00BF00BF2C
:10364000C0F8142800229C18E478002C14BFC0F89D
:1036500010C8C0F814C800BF00BF00BF00BF00BF43
:10366000C0F8101800BF00BF00BF00BF00BF00BF00
:1036700000BF00BF00BF00BFC0F8141800BF00BFEC
:1036800000BF00BF00BF521CD2B2102ADBD3002201
:103690009818C07C0028A34814BFC0F810C8C0F810
:1036A00014C800BF00BF00BF00BF00BF9E4801603C
:1036B00000BF00BF00BF00BF00BF00BF00BF00BF12
:1036C00000BF00BF416000BF00BF00BF00BF00BF20
:1036D00002F10102D2B2202ADAD3079A0023002A8B
:1036E00084BF521E00927ED990484FF0000C30F8F3
:1036F0001340002C78D903EB83008D4A4000155C01
:103700001044019545788678C77890F8048090F841
:1037100005B08279CDF8088090F8078090F808907D
:10372000039290F809A04FF40052019800287D48B8
:1037300014BF00F5016000F61400026000BF00BF76
:1037400000BF00BF00BF7748C0F8101800BF00BF1F
:1037500000BF00BF00BF00BF00BF00BF00BF00BF71
:10376000C0F8141800BF00BF00BF00BF00BF002D8D
:1037700014BFC0F81028C0F8142800BF00BF00BF55
:1037800000BF00BFC0F8101800BF00BF00BF00BFDF
:1037900000BF00BF00BF00BF00BF00BFC0F81418CB
:1037A00000BF00BF00BF00BF00BF002E14BFC0F8A5
:1037B0001028C0F8142800BF00BF00BF00BF00BF22
:1037C000C0F8101800BF00BF00BF00BF00BF00BF9F
:1037D00000BF00BF00BF00BFC0F8141800BF00BF8B
:1037E00000BF00BF01E0FEE0F7E000BF002F14BF04
:1037F000C0F81028C0F8142800BF00BF00BF00BFE9
:1038000000BFC0F8101800BF00BF00BF00BF00BF5E
:1038100000BF00BF00BF00BF00BFC0F8141800BF4A
:1038200000BF00BF00BF00BFDDF808E0BEF1000F21
:1038300014BFC0F81028C0F8142800BF00BF00BF94
:1038400000BF00BFC0F8101800BF00BF00BF00BF1E
:1038500000BF00BF00BF00BF00BF00BFC0F814180A
:1038600000BF00BF00BF00BF00BFBBF1000F14BF0F
:10387000C0F81028C0F8142800BF00BF00BF00BF68
:1038800000BFC0F8101800BF00BF00BF00BF00BFDE
:1038900000BF00BF00BF00BF00BFC0F8141800BFCA
:1038A00000BF00BF00BF00BFDDF80CE0BEF1000F9D
:1038B00014BFC0F81028C0F8142800BF00BF00BF14
:1038C00000BF00BFC0F8101800BF00BF00BF00BF9E
:1038D00000BF00BF00BF00BF00BF00BFC0F814188A
:1038E00000BF00BF00BF00BF00BFB8F1000F14BF92
:1038F000C0F81028C0F8142800BF00BF00BF00BFE8
:1039000000BFC0F8101800BF00BF00BF00BF00BF5D
:1039100000BF00BF00BF00BF00BFC0F8141809E01F
:103920000095002000100140101801402C96002046
:10393000A095002000BF00BF00BF00BF00BFB9F1CD
:10394000000F14BFC0F81028C0F8142800BF00BF33
:1039500000BF00BF00BFC0F8101800BF00BF00BF0D
:1039600000BF00BF00BF00BF00BF00BF00BFC0F866
:10397000141800BF00BF00BF00BF00BFDDF800E0AB
:10398000734501BFA4F1010EE6454FF4004EC0F8A7
:1039900010E8BAF1000F14BFC0F81028C0F81428BE
:1039A00000BF00BF00BF00BF00BFC0F8101800BFBD
:1039B00000BF00BF00BF00BF00BF00BF00BF00BF0F
:1039C00000BFC0F8141800BF00BF00BF00BF00BF99
:1039D0000CF1010C64453FF6A8AE581CC3B2079821
:1039E00098423FF681AE53484FF40042426000BF18
:1039F00000BF00BF00BF00BF016000BF00BF00BF2D
:103A000000BF00BF00BF00BF00BF00BF00BF4160DC
:103A100000BF00BF00BF00BF00BF426000BF00BFCB
:103A200000BF00BF00BF016000BF00BF00BF00BFFC
:103A300000BF00BF00BF00BF00BF00BF416000BFAC
:103A400000BF00BF00BF00BF026000BF00BF00BFDB
:103A500000BF00BF016000BF00BF00BF00BF00BFCC
:103A600000BF00BF00BF00BF00BF416000BF00BF7C
:103A700000BF00BF00BF426000BF00BF00BF00BF6B
:103A800000BF016000BF00BF00BF00BF00BF00BF9C
:103A900000BF00BF00BF00BF416000BF00BF00BF4C
:103AA00000BF00BF00BF00BF00BF00BF00BF01607C
:103AB00000BF00BF00BF00BF00BF00BF00BF00BF0E
:103AC00000BF00BF416000BF00BF00BF00BF00BF1C
:103AD000026000BF00BF00BF00BF00BF016000BFA9
:103AE00000BF00BF00BF00BF00BF00BF00BF00BFDE
:103AF00000BF416000BF00BF00BF00BF00BF426009
:103B000000BF00BF00BF00BF00BF016000BF00BF1B
:103B100000BF00BF00BF00BF00BF00BF00BF00BFAD
:103B2000416000BF00BF00BF00BF00BF08B0BDE8DC
:103B3000F08F0000101801402DE9F001354C4FF4D2
:103B40000077A4F1200194F80080A1F1AC000122DB
:103B500003231925BE1C078041F2F45CB8F1000F65
:103B60000A8015D0771E47804A8040F20928A0F8C5
:103B700004808B8040F24923C380A1F806C040F244
:103B8000412303810D8147814A8186818A8115E025
:103B900040F2812747804A8040F28928A0F80480BB
:103BA0008B8040F2C923C380A1F806C040F2C12334
:103BB00003810D8147814A8186818A81164D0021CA
:103BC00001EB810205EB4202531E00224FF0050C6F
:103BD00030F81160ACF1010CD64006F001065E70C1
:103BE00030F81160571CFE4006F00106921C03F8E5
:103BF000026F1CF0FF0CEBD1491CC9B20729DFD3BF
:103C00006168BDE8F001072340F628220020FFF795
:103C100083BC00004C960020A09500202DE9F041C7
:103C200005460378344802220126A0F1AC017BB19D
:103C300040F201230B80028012024A80D21C46808F
:103C40008A808680131DCB80C6800A8106810EE0A3
:103C500040F281230B8002805A1E4A80D21C46808B
:103C60008A808680131DCB80C6800A810681234806
:103C7000002200BF02EB820300EB4303A3F1010C1F
:103C80000023052431F8127003F10108DF4007F02A
:103C900001078CF8017031F8127027FA08F707F065
:103CA00001079B1C0CF8027F641EEBD1521C052AF5
:103CB000E0D36868124F80087860A868B8607E70AA
:103CC00000F020F8E8680124B6EB900F34BF00261E
:103CD000BDE8F081686804EB90007860A86800EBAC
:103CE0008400B8607E7000F00DF8E868641CB4EBE6
:103CF000900FEFD3BDE8F0812C960020A095002016
:103D00004C9600202DE9F04F84B00021FF4C6578DF
:103D1000002D14BF012003200022FD4E00F00103FE
:103D2000521C7354491C4008D2B2C9B2032AF5D3BD
:103D3000CDB100206268082301EB000C0CF0FF08F5
:103D400002F0010706F80870520802F001070CF1B2
:103D5000010C0CF0FF0C5208801C5B1E06F80C7066
:103D600013F0FF03E8D1EB484FF400470023C0F8FD
:103D7000107800BF00BF00BF00BF00BFC114C0F873
:103D8000101800BF00BF00BF00BF00BF00BF00BFD2
:103D900000BF00BF00BFC0F8141800BF00BF00BFC5
:103DA00000BF00BFC0F814784FF0000C4214D84E8A
:103DB00016F803805B1CDBB2B8F1000F14BFC0F82B
:103DC0001028C0F8142800BF00BF00BF00BF00BF0C
:103DD000C0F8101800BF00BF00BF00BF00BF00BF89
:103DE00000BF00BF00BF00BFC0F8141800BF00BF75
:103DF00000BF00BF00BF0CF1010C0CF0FF0CBCF1C8
:103E0000030FD4D3C0F8107800BF00BF00BF00BFBD
:103E100000BFC0F8101800BF00BF00BF00BF00BF48
:103E200000BF00BF00BF00BF00BFC0F8141800BF34
:103E300000BF00BF00BF00BFC0F81478002D1CBF3A
:103E40004FF0000CB24C27D0E55C5B1CDBB2002DC0
:103E500014BFC0F81028C0F8142800BF00BF00BF6E
:103E600000BF00BFC0F8101800BF00BF00BF00BFF8
:103E700000BF00BF00BF00BF00BF00BFC0F81418E4
:103E800000BF00BF00BF00BF00BF0CF1010C0CF071
:103E9000FF0CBCF1100FD7D3DFF87CC20023BCF8B5
:103EA00008C0ACF1010CCDF808C000BF9A484FF033
:103EB000000C30F81340002C7ED903EB83009749A7
:103EC0004500485D0390481945788678C77890F892
:103ED000048090F8059090F806A090F807B0017A59
:103EE000407ACDE900104FF400610398002889481A
:103EF00014BF00F5016000F61400026000BF00BFAF
:103F000000BF00BF00BF8348C0F8101800BF00BF4B
:103F100000BF00BF00BF00BF00BF00BF00BF00BFA9
:103F2000C0F8141800BF00BF00BF00BF00BF002DC5
:103F300014BFC0F81028C0F8142800BF00BF00BF8D
:103F400000BF00BFC0F8101800BF00BF00BF00BF17
:103F500000BF00BF00BF00BF00BF00BFC0F8141803
:103F600000BF00BF00BF00BF00BF002E14BFC0F8DD
:103F70001028C0F8142800BF00BF00BF00BF00BF5A
:103F8000C0F8101800BF00BF00BF00BF00BF00BFD7
:103F900000BF00BF00BF00BFC0F8141800BF00BFC3
:103FA00000BF00BF00BF002F14BFC0F81028C0F82A
:103FB000142800BF00BF00E0ECE000BF00BF00BF5E
:103FC000C0F8101800BF00BF00BF00BF00BF00BF97
:103FD00000BF00BF00BF00BFC0F8141800BF00BF83
:103FE00000BF00BF00BFB8F1000F14BFC0F8102819
:103FF000C0F8142800BF00BF00BF00BF00BFC0F85A
:10400000101800BF00BF00BF00BF00BF00BF00BF4F
:1040100000BF00BF00BFC0F8141800BF00BF00BF42
:1040200000BF00BFB9F1000F14BFC0F81028C0F8DE
:10403000142800BF00BF00BF00BF00BFC0F81018A9
:1040400000BF00BF00BF00BF00BF00BF00BF00BF78
:1040500000BF00BFC0F8141800BF00BF00BF00BF02
:1040600000BFBAF1000F14BFC0F81028C0F8142820
:1040700000BF00BF00BF00BF00BFC0F8101800BFE6
:1040800000BF00BF00BF00BF00BF00BF00BF00BF38
:1040900000BFC0F8141800BF00BF00BF00BF00BFC2
:1040A000BBF1000F14BFC0F81028C0F8142800BFDF
:1040B00000BF00BF00BF00BFC0F8101800BF00BFA6
:1040C00000BF00BF00BF00BF00BF00BF00BF00BFF8
:1040D000C0F8141800BF00BF00BF00BF00BFDDF86C
:1040E00000E0BEF1000F14BFC0F81028C0F814287B
:1040F00000BF00BF00BF00BF00BFC0F8101800BF66
:1041000000BF00BF00BF00BF00BF09E04C96002009
:1041100000950020001001402C960020A095002062
:1041200000BF00BF00BF00BFC0F8141800BF00BF31
:1041300000BF00BF00BF042B01BFDDF808E0E6456B
:104140004FF4004EC0F810E8DDF804E0BEF1000FB7
:1041500014BFC0F81028C0F8142800BF00BF00BF6B
:1041600000BF00BFC0F8101800BF00BF00BF00BFF5
:1041700000BF00BF00BF00BF00BF00BFC0F81418E1
:1041800000BF00BF00BF00BF00BF0CF1010C6445C1
:104190003FF6ABAE581CC3B2052BFFF487AE8D487B
:1041A0004FF40045C0F8145800BF00BF00BF00BF67
:1041B00000BFC114C0F8101800BF00BF00BF00BF8F
:1041C00000BF00BF00BF00BF00BF00BFC0F8141891
:1041D00000BF00BF00BF00BF00BF00BF00BF00BFE7
:1041E00000BF00BFC0F8101800BF00BF00BF00BF75
:1041F00000BF00BF00BF00BF00BF00BFC0F8141861
:1042000000BF00BF00BF00BF00BF00BF00BF00BFB6
:1042100000BF00BFC0F8101800BF00BF00BF00BF44
:1042200000BF00BF00BF00BF00BF00BFC0F8141830
:1042300000BF00BF00BF00BF00BF0023664E674C39
:10424000C0F81028D6F808CC1CF4006C18BF4FF04A
:10425000010C04F803C000BF00BF00BF00BF00BFD7
:10426000C0F8101800BF00BF00BF00BF00BF00BFF4
:1042700000BF00BF00BF00BFC0F8141800BF00BFE0
:1042800000BF00BF00BF5B1CDBB21F2BD8D3C0F840
:104290001058C0F81028D6F8082C12F4006218BF85
:1042A0000122E25400BF00BF00BF00BF00BFC0F842
:1042B000101800BF00BF00BF00BF00BF00BF00BF9D
:1042C00000BF00BF00BFC0F8141800BF00BF00BF90
:1042D00000BF00BFC0F8145800BF00BF00BF00BF40
:1042E00000BFC0F8101800BF00BF00BF00BF00BF74
:1042F00000BF00BF00BF00BF00BFC0F8141800BF60
:1043000000BF00BF00BF00BF00BF00BF00BF00BFB5
:1043100000BFC0F8101800BF00BF00BF00BF00BF43
:1043200000BF00BF00BF00BF00BFC0F8141800BF2F
:1043300000BF00BF00BF00BFC0F8105800BF00BFE3
:1043400000BF00BF00BFC0F8101800BF00BF00BF13
:1043500000BF00BF00BF00BF00BF00BF00BFC0F86C
:10436000141800BF00BF00BF00BF00BFC0F8145842
:1043700000BF00BF00BF00BF00BFC0F8101800BFE3
:1043800000BF00BF00BF00BF00BF00BF00BF00BF35
:1043900000BFC0F8141800BF00BF00BF00BF00BFBF
:1043A000002001220D49202311F801CBBCF1000FA0
:1043B00018BF104352005B1EF6D10949020A8968F2
:1043C00008704A70020C8A70000EC87004B0BDE814
:1043D000F08F000000100140000001400095002017
:1043E0004C96002010B586B0FFF73EF80F48002429
:1043F0004FF4807104704160FFF79EFB4FF05A301C
:1044000004904FF0A53005904FF4FF60019004A890
:104410000290082003908DF80040684600F00AF8EA
:10442000034901200C7006B010BD00004C9600201E
:10443000218100202DE9F041044690F800C0484851
:10444000062202230126A0F1AC01BCF1000F21D00D
:104450004FF4007CA1F800C0068040F201254D8099
:10446000468040F221278F80868040F26127CF80EE
:10447000C68040F26328A1F8088002814F814681FE
:1044800040F241228A818381CD81C681A1F810C08A
:10449000068220E04FF4207CA1F800C0068040F2A4
:1044A00081254D80468040F2A1278F80868040F292
:1044B000E127CF80C68040F2E328A1F8088002817E
:1044C0004F81468140F2C1228A818381CD81C6819C
:1044D000A1F810C00682234D002200BF02EB82002B
:1044E00005EB4000A0F1010C0023052031F812700B
:1044F00003F10108DF4007F001078CF8017031F883
:10450000127027FA08F707F001079B1C0CF8027FCE
:10451000401EEBD1521C092AE0D36068124F80087C
:104520007860A068B8607E7000F0AAF8E0680125A5
:10453000B6EB900F34BF0026BDE8F081606805EB54
:1045400090007860A06800EB8500B8607E7000F095
:1045500097F8E0686D1CB5EB900FEFD3BDE8F081E4
:104560002C960020A09500204C9600202DE9F043C9
:104570008DB00546FEF778FF3F4800244FF4807168
:1045800004704160FFF7D8FA4FF05A300A904FF0AC
:10459000A5300B904FF4FF6005900AA80826CDE9DE
:1045A00006068DF8104004A8FFF744FF334F4FF084
:1045B000010810223C70FF2105F1340002F0E2FBFB
:1045C00058B105F134008DF810404FF47A71079618
:1045D000CDE9051004A8FFF721FB04268DF8004063
:1045E00040F204400396CDE901056846FFF722FF3B
:1045F0004FF481600190281D4FF01009CDE90209A8
:104600008DF800406846FFF715FF4FF48360019076
:1046100005F114000290202003908DF800406846B8
:10462000FFF708FF4FF48760019005F13400CDE9F2
:1046300002098DF800406846FFF7FCFE4FF48960E0
:10464000019005F14400CDE902068DF8004068466E
:10465000FFF7F0FE55208DF820003002019008A8E9
:10466000CDE902068DF800406846FFF7E3FE87F8C3
:1046700000800DB0BDE8F0834C9600202181002021
:104680002DE9F04F002084B00146FF4E7578002DD3
:1046900008BF02200022DFF8F4C300BF00F00103CE
:1046A0000CF80130491C521C4008D2B2C9B2032A8E
:1046B000F4D3D5B10024D6F8043008200A1902F04A
:1046C000FF0803F001070CF808705B0803F001070E
:1046D000521CD2B25B08A41C401E0CF8027010F0F1
:1046E000FF00EBD101F11000C1B2B268002010232D
:1046F000D2F80140127842EA042200BF0C18E7B257
:1047000002F001060CF80760520802F00106641C72
:10471000E4B25208801C5B1E0CF8046013F0FF0327
:10472000ECD1DB494FF400460020C1F8106800BF0F
:1047300000BF00BF00BF00BFCA14C1F8102800BFEF
:1047400000BF00BF00BF00BF00BF00BF00BF00BF71
:1047500000BFC1F8142800BF00BF00BF00BF00BFEA
:10476000C1F814685FEA61441CF80070401CC0B2D4
:10477000002F14BFC1F81048C1F8144800BF00BF93
:1047800000BF00BF00BFC1F8102800BF00BF00BFBE
:1047900000BF00BF00BF00BF00BF00BF00BFC1F827
:1047A000142800BF00BF00BF00BF00BF5B1CDBB20E
:1047B000032BD9D3C1F8106800BF00BF00BF00BFF2
:1047C00000BFC1F8102800BF00BF00BF00BF00BF7E
:1047D00000BF00BF00BF00BF00BFC1F8142800BF6A
:1047E00000BF00BF00BF00BFC1F81468002D18BF94
:1047F000002325D01CF80050401CC0B2002D14BF6F
:10480000C1F81048C1F8144800BF00BF00BF00BF86
:1048100000BFC1F8102800BF00BF00BF00BF00BF2D
:1048200000BF00BF00BF00BF00BFC1F8142800BF19
:1048300000BF00BF00BF00BF5B1CDBB2102BD9D391
:104840005FF000031CF80050401CC0B2002D14BFE4
:10485000C1F81048C1F8144800BF00BF00BF00BF36
:1048600000BFC1F8102800BF00BF00BF00BF00BFDD
:1048700000BF00BF00BF00BF00BFC1F8142800BFC9
:1048800000BF00BF00BF00BF5B1CDBB2202BD9D331
:1048900080480023008A401ECDF800007D484FF07C
:1048A000000C30F81340002C7ED903EB830041004C
:1048B0007948455C08444678877890F8038090F8FA
:1048C000049090F805B090F806A0C179027A0191A1
:1048D000417A6F48029203914FF40052C114002DA7
:1048E00014BFC0F81028C0F8142800BF00BF00BFD4
:1048F00000BF00BFC0F8101800BF00BF00BF00BF5E
:1049000000BF00BF00BF00BF00BF00BFC0F8141849
:1049100000BF00BF00BF00BF00BF002E14BFC0F823
:104920001028C0F8142800BF00BF00BF00BF00BFA0
:10493000C0F8101800BF00BF00BF00BF00BF00BF1D
:1049400000BF00BF00BF00BFC0F8141800BF00BF09
:1049500000BF00BF00BF002F14BFC0F81028C0F870
:10496000142800BF00BF00BF00BF00BFC0F8101870
:1049700000BF00BF00BF00BF00BF00BF00BF00BF3F
:1049800000BF00BFC0F8141800BF00BF00BF00BFC9
:1049900000BFB8F1000F14BFC0F81028C0F81428E9
:1049A00000BF00BF00BF00E0EDE000BF00BFC0F8E7
:1049B000101800BF00BF00BF00BF00BF00BF00BF96
:1049C00000BF00BF00BFC0F8141800BF00BF00BF89
:1049D00000BF00BFB9F1000F14BFC0F81028C0F825
:1049E000142800BF00BF00BF00BF00BFC0F81018F0
:1049F00000BF00BF00BF00BF00BF00BF00BF00BFBF
:104A000000BF00BFC0F8141800BF00BF00BF00BF48
:104A100000BFBBF1000F14BFC0F81028C0F8142865
:104A200000BF00BF00BF00BF00BFC0F8101800BF2C
:104A300000BF00BF00BF00BF00BF00BF00BF00BF7E
:104A400000BFC0F8141800BF00BF00BF00BF00BF08
:104A5000BAF1000F14BFC0F81028C0F8142800BF26
:104A600000BF00BF00BF00BFC0F8101800BF00BFEC
:104A700000BF00BF00BF00BF00BF00BF00BF00BF3E
:104A8000C0F8141800BF09E04C96002000950020E3
:104A9000001001402C960020A095002000BF00BF10
:104AA00000BF00BFDDF804E0BEF1000F14BFC0F886
:104AB0001028C0F8142800BF00BF00BF00BF00BF0F
:104AC000C0F8101800BF00BF00BF00BF00BF00BF8C
:104AD00000BF00BF00BF00BFC0F8141800BF00BF78
:104AE00000BF00BF00BFDDF808E0BEF1000F14BF3B
:104AF000C0F81028C0F8142800BF00BF00BF00BFD6
:104B000000BFC0F8101800BF00BF00BF00BF00BF4B
:104B100000BF00BF00BF00BF00BFC0F8141800BF37
:104B200000BF00BF00BF00BF082B01BFDDF800E0E1
:104B3000E6454FF4004EC0F810E8DDF80CE0BEF199
:104B4000000F14BFC0F81028C0F8142800BF00BF21
:104B500000BF00BF00BFC0F8101800BF00BF00BFFB
:104B600000BF00BF00BF00BF00BF00BF00BFC0F854
:104B7000141800BF00BF00BF00BF00BF0CF1010C44
:104B800064453FF6ACAE581CC3B2092BFFF486AEA9
:104B900053484FF40042426000BF00BF00BF00BF57
:104BA00000BF4FF40061016000BF00BF00BF00BF45
:104BB00000BF00BF00BF00BF00BF00BF416000BF1B
:104BC00000BF00BF00BF00BF426000BF00BF00BF0A
:104BD00000BF00BF016000BF00BF00BF00BF00BF3B
:104BE00000BF00BF00BF00BF00BF416000BF00BFEB
:104BF00000BF00BF00BF026000BF00BF00BF00BF1A
:104C000000BF016000BF00BF00BF00BF00BF00BF0A
:104C100000BF00BF00BF00BF416000BF00BF00BFBA
:104C200000BF00BF426000BF00BF00BF00BF00BFA9
:104C3000016000BF00BF00BF00BF00BF00BF00BFDA
:104C400000BF00BF00BF416000BF00BF00BF00BF8A
:104C500000BF00BF00BF00BF00BF00BF016000BFBA
:104C600000BF00BF00BF00BF00BF00BF00BF00BF4C
:104C700000BF416000BF00BF00BF00BF00BF0260B7
:104C800000BF00BF00BF00BF00BF016000BF00BF8A
:104C900000BF00BF00BF00BF00BF00BF00BF00BF1C
:104CA000416000BF00BF00BF00BF00BF426000BF47
:104CB00000BF00BF00BF00BF016000BF00BF00BF5A
:104CC00000BF00BF00BF00BF00BF00BF00BF41600A
:104CD00000BF00BF00BF00BF00BF04B0BDE8F08F41
:104CE000101801407047000010B5FDF73DFE002888
:104CF00008BF10BD012002F029FB002808BF10BD2D
:104D000001200149087010BD2481002010B5012048
:104D100002F01CFB00284FF0010008BF10BD024943
:104D20000870002010BD00002481002010B5FEF79F
:104D30006BF90120FDF78CFD30B1054800210170B1
:104D400001214170084610BDFEF714F9002010BD86
:104D500024810020034910B500204870FEF70AF9AD
:104D6000012010BD2481002010B5014608224FF417
:104D70007A7002F0A3F9002818BF012010BD38B5E1
:104D80000446042269464FF4797002F097F900282E
:104D900008BF38BD9DF803002070012038BD10B554
:104DA000014620224FF4836002F088F9002818BFE2
:104DB000012010BD002101700120704738B5044664
:104DC000042269464FF4797002F078F9002808BF90
:104DD00038BD9DF8000020709DF801006070012032
:104DE00038BD000001480078704700002481002091
:104DF0000020704710B582B0B82211494FF0005022
:104E000002F062FCC0B10023CDE900330E4C002259
:104E10000C4904F1140002F009F868B10023CDE94F
:104E200000330022094904F1140001F0FFFF0028BB
:104E300018BF012002B010BD02B0002010BD00005C
:104E40008079000821000020387A00082D00002019
:104E5000134610B50A46194602F030F9002818BF6B
:104E6000012010BD10B500F005F8002818BF012082
:104E700010BD000010B584B0B82225494FF0005095
:104E800002F022FCE0B30023CDE90033224C0022E3
:104E9000204904F1140001F0C9FF88B30023CDE9D3
:104EA000003300221D4904F1140001F0BFFF38B3A4
:104EB0000023CDE900334FF48062194904F1140056
:104EC00001F0B4FF0024D8B14FF05A3002904FF0F7
:104ED000A5300390082202A94FF4FF6002F0BAFC4B
:104EE00070B1082202A94FF4FF6002F0E7F838B170
:104EF0000298B0F15A3F03D10398B0F1A53F02D018
:104F000004B0002010BD0748047004B0012010BD9B
:104F10008079000821000020387A00082D00002048
:104F20003D00002024810020034A52780AB100F09D
:104F300005B800F029B9000000A000202DE9F0011B
:104F40008F4A4FF40055C2F81058D314C2F81438E1
:104F5000C2F8103810F0010F14BFC2F81058C2F890
:104F60001458C2F81438C2F81038440814F0010F6D
:104F700014BFC2F81058C2F81458C2F81438C2F856
:104F800010384FEA900C04441CF0010F14BFC2F813
:104F90001058C2F81458C2F81438C2F810386444D3
:104FA0004FEAD00C1CF0010F14BFC2F81058C2F821
:104FB0001458C2F81438C2F81038A4441CF0010F79
:104FC00014BFC2F81058C2F81458C2F81438C2F806
:104FD0001038C2F81458C2F81438C2F81038C2F8A1
:104FE0001058C2F81438C2F81038664E347D5FEAA3
:104FF000040C06D0C2F81438C2F81038BCF1010C09
:10500000F8D1C2F81438D2F808C8C2F81038CCF376
:10501000403CC2F81438D2F80878C2F81038C7F308
:1050200040374CEA470CC2F81438D2F80878C2F876
:105030001038C7F340374CEA8707012F0DD0022FF5
:1050400018BF042F73D014F1210069D0C2F81438AE
:10505000C2F81038401EF9D162E010F0020F2CD0D7
:105060004FF0000C64462020C2F81438D2F80888AB
:10507000C2F81038C8F340384FEA5C0C44444CEA9C
:10508000C87C401EF0D1C2F81438D2F80808C2F823
:105090001038C0F34030604010F0010F18BF0827EF
:1050A000002918BFC1F800C0307D60B3C2F81438C1
:1050B000C2F81038401EF9D125E02CB1C2F81438DE
:1050C000C2F81038641EF9D1086800244FF0200C93
:1050D00010F0010F14BFC2F81058C2F81458C2F8EB
:1050E0001438C2F8103804444008BCF1010CEFD168
:1050F00014F0010F14BFC2F81058C2F81458C2F8C7
:105100001438C2F81038307A002818BFC2F8145882
:1051100006D000BFC2F81438C2F81038401EF9D1CA
:10512000C2F81058F8B2BDE8F0017047FFE796F8F2
:1051300015C0BCF1000F1CBF10F0020F212105D0DB
:10514000C2F81438C2F81038491EF9D134B100BF82
:10515000C2F81438C2F81038641EF9D1BCF1000F3F
:10516000DED010F0020F04BFC2F814582120D7D1AE
:10517000C2F81438C2F81038401EF9D1D0E7000048
:105180000010014000A000202DE9F00F4FF4005462
:10519000FF4BC3F810484FF4006CC3F814C8DFF895
:1051A000F493D9F80420551E002DC8BF6D1EFBDCFA
:1051B000C3F810C8551E002DC8BF6D1EFBDC10F0D3
:1051C000010F14BFC3F81048C3F81448C3F814C83B
:1051D000551E002DC8BF6D1EFBDCC3F810C8551E40
:1051E000002DC8BF6D1EFBDC4608074616F0010FF8
:1051F00014BFC3F81048C3F81448C3F814C8551EA8
:10520000002DC8BF6D1EFBDCC3F810C8551E002D55
:10521000C8BF6D1EFBDC8719860816F0010F14BF8E
:10522000C3F81048C3F81448C3F814C8551E002D1D
:10523000C8BF6D1EFBDCC3F810C8551E002DC8BFCB
:105240006D1EFBDC3744C60816F0010F14BFC3F80F
:105250001048C3F81448C3F814C8551E002DC8BF21
:105260006D1EFBDCC3F810C8551E002DC8BF6D1E97
:10527000FBDCBD1915F0010F14BFC3F81048C3F8CB
:105280001448C3F814C8551E002DC8BF6D1EFBDCA2
:10529000C3F810C8551E002DC8BF6D1EFBDCC3F837
:1052A0001448C3F814C8551E002DC8BF6D1EFBDC82
:1052B000C3F810C8551E002DC8BF6D1EFBDCC3F817
:1052C0001048C3F814C8551E002DC8BF6D1EFBDC66
:1052D000C3F810C8551E002DC8BF6D1EFBDC99F821
:1052E00014703E4687B100BFC3F814C8551E002D88
:1052F000C8BF6D1EFBDCC3F810C8551E002DC8BF0B
:105300006D1EFBDC7F1EEFD1C3F814C8551E002DA7
:10531000C8BF6D1EFBDCD3F80858C3F810C8C5F32E
:105320004037551E002DC8BF6D1EFBDCC3F814C8E6
:10533000551E002DC8BF6D1EFBDCD3F80858C3F8FE
:1053400010C8C5F34038551E002DC8BF6D1EFBDCCC
:1053500047EA4807C3F814C8551E002DC8BF6D1E84
:10536000FBDCD3F80858C3F810C8C5F34038551E05
:10537000002DC8BF6D1EFBDC47EA8805012D18D043
:10538000022D18BF042D70D016F121016ED000BF80
:10539000C3F814C8501E0028C8BF401EFBDCC3F869
:1053A00010C8501E0028C8BF401EFBDC491EEFD1AC
:1053B000BCE010F0020F5AD00027B8465FF020067C
:1053C000C3F814C8501E0028C8BF401EFBDCD3F829
:1053D0000808C3F810C8C0F34030A2F1010A00BFAA
:1053E000BAF1000FC8BFAAF1010AF9DC7F088044B6
:1053F00047EAC077761EE3D166461846C3F814C85C
:10540000CB46A2F1010A00BFBAF1000FC8BFAAF152
:10541000010AF9DCD0F808A8C0F81068CAF3403ACD
:10542000521E002AFCDC88EA0A0212F0010F18BFA3
:105430000825002918BF0F609BF81470002F18BFB3
:10544000D9F8042058D000BFC0F81468511E0029B4
:10545000C8BF491EFBDCC0F81068511E0029C8BF38
:10546000491EFBDC7F1EEFD146E065E05EE07EB1C9
:10547000C3F814C8501E0028C8BF401EFBDCC3F888
:1054800010C8501E0028C8BF401EFBDC761EEFD19E
:10549000096800275FF0200611F0010F14BFC3F860
:1054A0001048C3F81448C3F814C8501E0028C8BFD9
:1054B000401EFBDCC3F810C8501E0028C8BF401EA9
:1054C000FBDC0F444908761EE6D117F0010F14BF2C
:1054D000C3F81048C3F8144861461E46C3F814C800
:1054E000501E0028C8BF401EFBDCC6F81018501E16
:1054F0000028C8BF401EFBDC99F80820002A1CBF0A
:10550000C3F81448D9F8041010D000BFC3F814C869
:10551000481E0028C8BF401EFBDCC3F810C8481E48
:105520000028C8BF401EFBDC521EEFD1C3F8104854
:10553000E8B2BDE8F00F704799F81570002F1CBF56
:1055400010F0020F4FF0210811D000BFC3F814C8AB
:10555000511E0029C8BF491EFBDCC3F810C8511EEC
:105560000029C8BF491EFBDCB8F10108EED1A6B185
:10557000C3F814C8511E0029C8BF491EFBDCC3F87C
:1055800010C8511E0029C8BF491EFBDC761E03E06F
:105590000010014000A00020EAD1002FC6D010F07A
:1055A000020F04BFC3F814482121BFD1C3F814C8A7
:1055B000501E0028C8BF401EFBDCC3F810C8501E98
:1055C0000028C8BF401EFBDC491EEFD1AEE70B46EA
:1055D0009446B0F1005F24BF00F1C041B1F1804FAB
:1055E0001A46614601D202F035B902F06DB80000EA
:1055F00038B50446FFF73EFC002808BF38BD10222E
:10560000FF2104F1340001F0BDFB30B104F134019D
:1056100008224FF47A7001F051FD0422214640F235
:10562000044002F017F9002808BF38BD1022211DE0
:105630004FF4816002F00EF9002808BF38BD202227
:1056400004F114014FF4836002F004F9002808BF4C
:1056500038BD102204F134014FF4876002F0FAF8EB
:10566000002808BF38BD042204F144014FF48960CA
:1056700002F0F0F8002808BF38BD55208DF8000072
:1056800004226946100202F0E5F8002808BF38BD80
:1056900001200149087038BD24810020F0B4451E66
:1056A000002804BFF0BC70474FF400561448134B59
:1056B0004268DF1411F801CB5FF008041CF0010F01
:1056C00014BFC3F81068C3F81468C3F81478501EE8
:1056D0000028C8BF401EFBDCC3F81078501E00280D
:1056E000C8BF401EFBDC641E4FEA5C0C6D1E3CBF55
:1056F000F0BC7047002CE1D1DCE700000010014055
:1057000000A00020024920F0070008607047000058
:10571000505C0040234930B40A78234C002A08BF6B
:1057200000210CD002F00101012908D1D4F8003C7D
:105730009BB223F0700323F4E043C4F8003C914291
:105740002AD200BF01F0FF0C4FEA8C0303F1804323
:1057500003F5A043D3F8005CADB225F0700525F445
:10576000E04545EA0C0CC3F800CC4B1C03F0FF0CE1
:105770004FEA8C0303F1804303F5A043D3F8005CA8
:10578000ADB225F0700525F4E04545EA0C0CC3F8F0
:1057900000CC891C9142D5D340F08000C4F84C0C59
:1057A00030BC70477080002000500040054A21F056
:1057B00001011268044B92B202EBC00003EB4000FF
:1057C00081607047505C0040006000400E4A1268E3
:1057D0000E4B92B202EBC00003EB40023E290AD905
:1057E000480911F01F0F04BF401E80B24FF4004162
:1057F00041EA802006E0480811F0010F1CBF401C60
:1058000080B2800210607047505C00400C60004025
:105810000B4A02EB8002D2F8000C11F4805F80B2D8
:1058200020F0700020F4804018BF80F4805011F404
:10583000005F18BF80F40050C2F8000C70470000F1
:1058400000500040074901EB8000D0F8001C89B2ED
:1058500021F0700121F4804181F44051C0F8001C16
:105860007047000000500040054A21F00101126815
:10587000044B92B202EBC00043F8101070470000D6
:10588000505C004000600040044A1368044A9BB228
:1058900003EBC00002EB400041607047505C0040E9
:1058A000006000400B4A02EB8002D2F8000C11F0BD
:1058B000100F80B220F4415020F4804018BF80F0D7
:1058C000100011F0200F18BF80F02000C2F8000C6B
:1058D0007047000000500040074901EB8000D0F8FD
:1058E000001C89B221F4415121F4804181F0300142
:1058F000C0F8001C7047000000500040064A02EB50
:105900008000D0F8002C92B222F4CE6222F4E04261
:105910001143C0F8001C70470050004010B5164CF1
:1059200094F8B110814225D084F8B10040F20F11F3
:10593000204601F0C6F984F80F0194F8B10040B98F
:1059400080220021204601F060FA0C490C48FBF748
:10595000B3F90D4C0B492046FBF7AEF9002808BF00
:1059600010BD4FF4887204492046FBF703FA002863
:1059700008BF10BD012010BDC08B0020FF7F0508AF
:10598000000004080F7902080078020870B50C4C7A
:105990000128E06018BF70BD012060706568094E85
:1059A00020213046FBF769FB6168491BB1F57A7F1E
:1059B000FAD33046BDE870402021FBF760BB000001
:1059C00000800020000C014010B5134C0146482215
:1059D00004F1C00001F0FFF9552084F8080140F2FD
:1059E0000F11204601F06DF984F80F010C4C0B49A2
:1059F0002046FBF761F9002808BF10BD4FF48872FC
:105A000005492046FBF7B6F9002808BF10BD012064
:105A10000449087010BD0000C08B00200F790208F7
:105A2000007802081881002010B5174C94F8B010C7
:105A3000814226D084F8B00040F20F11204601F0D8
:105A400040F984F80F0194F8B00048B930220021E1
:105A500004F1800001F0D9F90C490D48FBF72CF94D
:105A60000D4C0C492046FBF727F9002808BF10BD54
:105A70004FF4887204492046FBF77CF9002808BFE0
:105A800010BD012010BD0000C08B0020FFFF0308E7
:105A9000008002080F79020800780208F0B585B08E
:105AA000FBF7DAFF4FF48030FCF768F8FCF7B6F844
:105AB0003F4D0128287025D11020FBF74FF9022017
:105AC000FBF79AF90020FCF74FF80020FCF77CF870
:105AD0004FF48060FCF76EF84FF4E0114FF4803023
