:020000040800F2
:1000000090A70020150200089B1100081D10000891
:1000100099110008350400085D5A0008000000002E
:100020000000000000000000000000007345000810
:10003000CD0900080000000037170008D54F000860
:10004000895A0008351700081D500008AB23000826
:10005000F50B0008E5180008E9090008ED0900089B
:10006000EF090008F1090008F30900080109000878
:100070000309000805090008070900080909000824
:100080000B0900080D090008270300082359000880
:10009000595A00084104000843040008F709000801
:1000A0001F50000825500008235000082150000868
:1000B00027500008295000082B5000082110000884
:1000C0001F10000825100008231000086B240008EA
:1000D0006D2400081D5600081F5600082156000810
:1000E000EB090008A9230008215900083350000833
:1000F000395000083750000835500008290300081F
:10010000FD0C0008692400082D5000086F24000829
:100110003B5000083D5000082F50000831500008A7
:100120000F09000811090008130900081509000843
:1001300000F002F800F05AF80AA090E8000C82449F
:100140008344AAF10107DA4501D100F04FF8AFF27C
:10015000090EBAE80F0013F0010F18BFFB1A43F0A5
:1001600001031847A85B0000C85B00000A444FF079
:10017000000C10F8013B13F0070408BF10F8014B06
:100180001D1108BF10F8015B641E05D010F8016B4B
:10019000641E01F8016BF9D113F0080F1EBF10F8AF
:1001A000014BAD1C0C1B09D16D1E58BF01F801CBD2
:1001B000FAD505E014F8016B01F8016B6D1EF9D555
:1001C0009142D6D37047000000230024002500266A
:1001D000103A28BF78C1FBD8520728BF30C148BFAA
:1001E0000B6070471FB51FBD10B510BD00F064F85F
:1001F0001146FFF7F7FF05F06FFC00F082F803B43B
:10020000FFF7F2FF03BC00F087F8000080F30888D6
:10021000704700000348004703480449044A054B5F
:100220007047000031010008909F002090A7002037
:1002300090A3002090A3002030BF704720BF7047DC
:1002400040BF7047BFF36F8F7047BFF34F8F70474A
:10025000BFF35F8F704701DF7047EFF31480704783
:1002600080F31488BFF36F8F7047EFF309807047F6
:1002700080F309887047EFF30880704780F308889F
:10028000704762B6704772B67047EFF310807047E0
:1002900071B6704761B67047EFF31380704780F313
:1002A00011887047EFF31280704740BA704700BA68
:1002B0007047704770477047754600F029F8AE46A2
:1002C00005006946534620F00700854618B020B562
:1002D000FFF7A2FFBDE820404FF000064FF00007F7
:1002E0004FF000084FF0000B21F00701AC46ACE8DE
:1002F000C009ACE8C009ACE8C009ACE8C0098D464B
:1003000070470446AFF300802046FFF778FF0000F7
:1003100000487047309F002001491820ABBEFEE71F
:10032000260002007047704770470029816802D09C
:1003300041F4A00101E021F4A001816070470000B8
:1003400070B5344C00216218435C92F8C4209A4284
:1003500058D094F8C000002852D0401E10F0FF0280
:100360002D4E2E4D84F8C02017D040F20F11294891
:1003700005F08BFB84F80F013146284600F0DAFBCC
:10038000002808BF70BD4FF488722249284600F04B
:100390003FFC002808BF70BD32E04FF48872002196
:1003A0001C4805F011FC2022FF2104F1D40005F0C7
:1003B0000BFC552084F80E0140F20F11154805F092
:1003C00064FB84F80F013022002104F1800005F065
:1003D000FBFB1349134800F0ADFB802200210D48C0
:1003E00005F0F2FB1049114800F0A4FB3146284605
:1003F00000F0A0FB4FF488720649284600F008FC84
:10040000002070BD491C10299DDB0949012008709E
:1004100070BD0000688B00200F7902080078020888
:10042000FFFF030800800208FF7F050800000408A2
:1004300018810020FEE7C1B2000A40EA012070479F
:10044000704770472DE9F05FDFF8FC81D8F80000B5
:100450007E4F388010F4004F08BFBDE8F09F4BF688
:100460008F797B4D7B4E7C4C48F6BF7A47F6FF7008
:10047000C8F80000388810F00F0030702DD004EB61
:10048000800001681FFA81FB1BF4004F0BD002684B
:1004900040F68F71114001607048317800EB8100A7
:1004A00050F8040C80471BF0800F0ED0307804EB1E
:1004B0008000026848F60F71114001606848317889
:1004C00000EB810050F8040C8047D8F80000388019
:1004D00010F4004FCAD1BDE8F09F2068C0F301308E
:1004E000000328802068C0F30110000168802068A4
:1004F00000EA090080F400502060206800EA0A0049
:1005000080F020002060388810F0100F2BD0206879
:1005100080B210F0800F49D0216848F60F70084073
:10052000206000F081FD2068298800EA090011F4AC
:10053000805F18BF80F4805011F4005F18BF80F412
:10054000005020602068698800EA0A0011F0100F4E
:1005500018BF80F0100011F0200F01D080F02000B3
:100560002060BDE8F09F216848F60F7008402060C9
:1005700000F05AFD2068298800EA090011F4805F24
:1005800018BF80F4805011F4005F18BF80F4005051
:1005900020602068698800EA0A0011F0100F18BF77
:1005A00080F0100011F0200FDAD0D7E710F4006FC0
:1005B00022D0216840F68F700840206004F010FAC5
:1005C0002068298800EA090011F4805F18BF80F4D0
:1005D000805011F4005F18BF80F400502060206844
:1005E000698800EA0A0011F0100F18BF80F01000AF
:1005F00011F0200FB4D0B1E710F4004F3FF465AF15
:10060000216840F68F700840206000F0FDFF2068F0
:10061000298800EA090011F4805F18BF80F4805037
:1006200011F4005F18BF80F40050206020686988D2
:1006300000EA0A0011F0100F18BF80F0100011F04E
:10064000200F8DD08AE70000445C004034800020F9
:100650003A81002028810020005C00405480002066
:1006600038800020074901EB8000016811F4804FB9
:1006700008BF7047016848F68F72114041F480410D
:1006800001607047005C0040074901EB8000016891
:1006900011F0400F08BF7047016848F68F72114093
:1006A00041F0400101607047005C004002480021B9
:1006B000C17081707047000000800020044901EB88
:1006C0008000016848F68F621140016070470000A9
:1006D000005C0040014900208860704700800020D5
:1006E000114910B50A680628117801F07F0102BF90
:1006F00001295379002B05D0212904BF03280B4978
:1007000009D00FE09078222808BF094903D021289A
:1007100008BF084906D129B100209161508288475D
:10072000002010BD022010BD2C8100205D070008B4
:100730007907000851070008014904F0C5BB000013
:1007400080800020014904F0BFBB000078800020B9
:10075000014904F0B9BB00009080002000281CBFB4
:100760000348704701200349096808820020704748
:10077000748000202C810020014904F0A5BB0000FA
:100780008880002005490968C978042984BF0020B1
:100790007047034A02EBC10104F096BB2C81002094
:1007A000C880002000290CBF0028022070470000EC
:1007B000074909680A7802F07F02212A0EBF0B2838
:1007C00002207047C8780349086000207047000085
:1007D0002C81002074800020284810B5006800217A
:1007E0008172C1722649C9794172002003F0C2FEAC
:1007F0004FF40071002003F08DFF1021002003F062
:1008000065FF1821002003F0EDFE5821002003F0C1
:100810003FFF0020FFF752FF1A4890F82C100020ED
:1008200003F0F0FE002003F025FF4FF4C06101202B
:1008300003F070FF4FF48071012003F029FF4FF4A3
:100840008271012003F0CEFE4021012003F030FF31
:100850004021012003F0D6FE4FF44051012003F067
:10086000F3FE2021012003F031FF07490120086039
:10087000BDE81040002003F085BE00002C81002060
:100880005E5C0008988000200C810020064800680B
:10089000807A002808BF70470520044908600121BC
:1008A0000348FFF742BD00002C8100200C8100208E
:1008B0000024014001490420086070470C81002099
:1008C0007047704710B500F081FB084800240068AD
:1008D000847200F031FF0648046006494FF43F403F
:1008E0000880054908600548046010BD2C8100207F
:1008F000445C004038810020405C00400C810020B6
:10090000704770477047704770477047704770472F
:1009100070477047704700002DE9F047DFF894807A
:10092000254F4FF03009D8F8001001F11005088A62
:100930000E7A002808BF042E23D0AC8884422CBF36
:100940000426022688BF04462046A96888478246B6
:10095000002000F003FB01462246504605F080F8D7
:100960002146002003F0A4FE28881449001B28809B
:10097000688820446880A7F800904FF440500880B1
:1009800012E00F480178012903D007261020388093
:100990000AE00C4A002112680B4B92B203EB4202B0
:1009A0005160A7F800900170D8F800000672BDE809
:1009B000F08700002C8100203C8100203A8100203B
:1009C00024810020505C004000600040704700001F
:1009D00003494A684B689B1A8342FBD37047000067
:1009E0000080002004F02ABF7047704770477047AE
:1009F000704700F09BBB70470149086070470000DA
:100A00001404014010B5837920490268A3B3D1F8DA
:100A100000349343C1F80034D1F8042403689A43A6
:100A2000C1F80424027904680A44D2F8003423434C
:100A3000C2F80034D1F8082403689A43C1F80824A6
:100A4000D1F80C2403689A43C1F80C244279102A87
:100A50000AD101F581610A6803681A430A604A688D
:100A6000006802434A6010BD1144D1F800240068B8
:100A70000243C1F8002410BDFFE700790844D0F814
:100A800000149143C0F80014F5E700000000014095
:100A900010B54FF488720021194805F095F8184CEC
:100AA0002022FF2104F1D40005F08EF8552084F8AF
:100AB0000E0140F20F11204604F0E7FF84F80F0109
:100AC0003022002104F1800005F07EF80D490E4827
:100AD00000F030F880220021204605F075F80B491F
:100AE0000B4800F027F80C4C0A49204600F022F889
:100AF0002046BDE810404FF48872014900F088B8E4
:100B0000688B0020FFFF030800800208FF7F0508B4
:100B1000000004080F790208007802080149032048
:100B2000086070470C8100200149C86070470000D0
:100B30000020024030B583B0054604200C468DF8F5
:100B4000000000F0BBF8601B012101EBD0200190F8
:100B50003520FFF7E9FF002401998C4203D29DF86C
:100B60000000042802D003B0012030BD05EBC420F2
:100B700000F00CF88DF800009DF80000042808BF74
:100B8000641CE9D003B0002030BD000070B50546FC
:100B900040F6FF76304600F09DF8042813D10A4C49
:100BA000206940F0020020616561206940F040004A
:100BB0002061304600F08EF8012804D0216941F60A
:100BC000FD721140216170BD0020024008490420DF
:100BD000CA68D20701D001207047CA68520701D500
:100BE00002207047C968C906FBD503207047000082
:100BF000002002407047000004490A6822F01002F9
:100C00000A600A6802430A60704700000020024040
:100C1000F8B515460E46074600F050F83520FFF7A8
:100C200083FF002404208DF8000000BFB4EB950F73
:100C300003D29DF80000042801D00120F8BD56F829
:100C4000241007EB840000F00BF88DF800009DF8ED
:100C50000000042808BF641CE8D00020F8BD000094
:100C6000F0B505460E460F2000F034F8042816D1E2
:100C70000B4C206940F0010020612E800F2000F015
:100C800029F841F6FE77042804D1300C68800F2043
:100C900000F020F8012802D0216939402161F0BD1F
:100CA0000020024004490A6802F038020A600A681B
:100CB00002430A60704700000020024003480249D6
:100CC00041600349416070472301674500200240AD
:100CD000AB89EFCD00B50346FFF778FF05E0FF20B5
:100CE000401EFDD1FFF772FF5B1E012802D1002BD1
:100CF000F5D101E0002B00D1052000BD70470000B8
:100D00002DE9F04383B001215C2000F033FD102475
:100D1000DFF81C81ADF8004048258DF80350694686
:100D2000404600F09FF80220ADF80000DFF8049183
:100D30008DF803506946484600F094F82025ADF838
:100D4000005003268DF802608DF80340694648463E
:100D500000F088F8ADF800508DF802608DF803407F
:100D60006946404600F07EF8E002ADF80400012537
:100D70008DF8065004248DF8074001A9404600F084
:100D800071F86702ADF804708DF806508DF80740D1
:100D900001A9404600F066F8E002ADF804008DF8C5
:100DA00006508DF8074001A9404600F05BF8ADF809
:100DB00004708DF806508DF8074001A9484600F0F0
:100DC00051F8E701ADF804708DF806508DF8074032
:100DD00001A9404600F046F8ADF80040DFF8588021
:100DE0008DF8026018258DF803506946404600F0E2
:100DF00039F80820ADF800008DF8034069464046F8
:100E000000F030F8ADF800708DF802608DF80350F6
:100E10006946404600F026F82002ADF800008DF843
:100E200003406946404600F01DF803B0BDE8F0837A
:100E300000180140000C01400008014010B58A076D
:100E400021F003040649120F21440F238C689340BC
:100E50009C438C608B68904003438B6010BD000006
:100E600000000140F0B5CB780022DC0603F00F0350
:100E700001D58C7823430C880F2714F0FF0F4FF017
:100E8000010C1CD0D0F800500E880CFA02F4264059
:100E9000A64210D1960007FA06FE25EA0E0E03FAC6
:100EA00006F5CE7845EA0E05282E00D14461CE78AD
:100EB000482E00D10461521C082AE5D305600A8837
:100EC000FF2A1ED94568002202F108060CFA06F432
:100ED0000E882640A64210D1960007FA06FE25EAA3
:100EE0000E0E03FA06F5CE7845EA0E05282E00D13F
:100EF0004461CE78482E00D10461521C082AE3D305
:100F00004560F0BD0246926800200A4200D00120F0
:100F1000704741617047016170470AB101617047D4
:100F2000416170470448806841F2883188422CBF93
:100F3000012000207047000000800020054909685A
:100F400089B201EBC000044901EB4000008980B286
:100F500070470000505C0040006000400449096890
:100F600089B201EBC000034931F8100080B270472C
:100F7000505C004000600040034951F82000C0F37D
:100F80000110000170470000005C00400148C0787B
:100F9000704700000080002000487047688B0020E8
:100FA000014890F8C0007047688B00200148007825
:100FB0007047000018810020034890F80801552868
:100FC0000CBF012000207047688B00201148016889
:100FD000001D0368001D0029026808BF70470E4805
:100FE0004FEA112C817080F804C04FEA114C80F850
:100FF00006C0090E01728372190A0173190C8173FC
:10100000190E01748274110A0175110C8175110E8B
:1010100001767047E8F7FF1F18800020FEE7704751
:1010200070477047704700002DE9F041364D286841
:10103000017A022918BF042915D0062918BF0820F3
:1010400016D029680872314890F82C10002003F05F
:10105000D9FA2868007A08284BD0092804BF012053
:10106000BDE8F0814CE0FFF757FC2868007AE8E71C
:101070004178052937D1017811F07F0F33D1C67837
:10108000234803783BB3234913F0010048F68F72DD
:1010900005D0D1F800C00CEA020CC1F800C098429B
:1010A00019D200BF00F0FF0C01EB8C042768174039
:1010B00047EA0C0CC4F800C000F1010C0CF0FF0C66
:1010C00001EB8C042768174047EA0C0CC4F800C0F9
:1010D000801C9842E6D3104946F0800008600F4813
:1010E0000068006A80470E480068806880470820D2
:1010F000A7E70C494FF4805008800B491020088066
:101100000020BDE8F08100002C81002098800020A4
:1011100070800020005C00404C5C00403481002066
:10112000308100203A8100203C81002003480121C9
:101130008170416801611020FFF75EBC00800020D3
:1011400010B50C4CA078002808BF10BDE07800282E
:1011500018BF10BD60682169401A322898BF10BDC1
:1011600010210548FFF7CEFE002804BF0120E070E3
:1011700010BD000000800020001801400448817A62
:101180000448002914BF05210121016070470000B7
:10119000149F00200C810020FEE770477047F0B5D7
:1011A0000F23C27801784FF0E024012742B3D4F82E
:1011B0000C2D467802F4E062C2F5E062120AC2F138
:1011C0000405D3408278AE401A40324315018A07A5
:1011D000D20E954021F003010B19D3F80064FF21D2
:1011E00091408E430D402E43C3F8006400784109BE
:1011F00000F01F0004EB81018740C1F80071F0BDD1
:1012000001F01F008740480904EB8000C0F880719E
:10121000F0BDFFF73DB80000024A1140014302480B
:101220000160704780FFFF1F08ED00E008220021E9
:1012300004F0CABCFF210170704700002022014960
:1012400004F0ACBC3C8C0020034991F8B42002703F
:1012500091F8B51041707047688B00202DE9F04778
:1012600084B0FFF793FE002804BF04B0BDE8F08708
:101270002021DFF8F0904846FFF74DFEFFF752FEC1
:1012800000286AD0032003F089FA374C94F8B200A2
:1012900010B1012852D05DE094F8B100002855D07B
:1012A00001F0A4FA94F8080155283CD002F010FD92
:1012B00000252E4F01264FF40068605D88B18DF83F
:1012C0000060D4F8B800C0EBC52000F1006000F564
:1012D0008020019007EBC520CDE90208684602F0A6
:1012E0001FFD6D1C802DE8D3DFF884A00025605D14
:1012F000F0B18DF80060D4F8B800CDF80C80C0EBE8
:10130000C52000F1006000F58020CDE9010A6846A3
:1013100002F02CF907EBC5214FF40062144804F0E9
:10132000FFFB28B112E004F1C00002F095FDBFE719
:101330006D1C802DDBD301F0ABFA02E000F01AF84F
:1013400020B120214846FFF7E4FD03E02021484674
:10135000FFF7E1FD022003F021FA04B0BDE8F047F9
:10136000FFF7A4B900180140688B002000000408B2
:10137000788C00202DE9F041404F97F8B10000280B
:1013800008BFBDE8F08103F0C1FE002808BFBDE83A
:10139000F08104F01DF8002808BFBDE8F08197F83F
:1013A0000801552808D1012107F1C00004F08CF88C
:1013B000002808BFBDE8F0810025785D00281CBF2B
:1013C0000024EE021BD000BF06EB842000F1006277
:1013D000D7F8B8100123401A00F1006002F580220E
:1013E00000F58020990204F031F8002808BFBDE81C
:1013F000F0810A20FFF7ECFA641C022CE4D36D1C88
:10140000802DDAD34FF0000817F8080000281CBF21
:1014100000244FEAC82524D0D7F8B80005EB84266D
:10142000301A00F10060012300F58020144A99026F
:1014300003F0A4FF002808BFBDE8F08106F10061B9
:1014400001F580214FF480620D4804F069FB10B172
:101450000020BDE8F0810520FFF7BAFA641C022CD9
:10146000DAD308F10108B8F1800FCDD3002003F0E2
:101470002BFF002818BF0120BDE8F081688B0020F9
:10148000788C002010B580220021044804F09CFBD9
:10149000BDE8104002490348FFF74CBB688B0020B1
:1014A000FF7F05080000040810B530220021044821
:1014B00004F08AFBBDE8104002490348FFF73ABB3D
:1014C000E88B0020FFFF03080080020810B50F4CD6
:1014D0000D484FF48871606004F0D7FA20B9616854
:1014E00091F80E01552802D0FFF7D2FA04E04FF42C
:1014F0008872074804F052FB00202070BDE81040BD
:1015000020210448FFF707BD007802081881002059
:10151000688B00200018014070B5154CD4F8B83025
:10152000184494F8B13073B9A0F10066A6F580268E
:10153000B6F5802F07D20F4B00EB020C0CEB030526
:10154000B5F5802F01D3002070BDFFF761FB0028A7
:1015500008BF70BD012004EBD621087004EBD52133
:10156000087094F87F00012818BF012070BD0000AA
:10157000688B0020FFFFFBF770B5134CD4F8B83030
:10158000184494F8B03073B9A0F10066A6F520367F
:10159000B6F5C03F07D20D4B00EB020C0CEB030578
:1015A000B5F5C03F01D3002070BDFFF731FB002827
:1015B00008BF70BD012004EBD62181F8800004EB48
:1015C000D52181F8800070BD688B0020FF7FFDF77A
:1015D0000B46054910B5D1F8B8100144184604F07F
:1015E000DDFA012010BD0000688B00200B46054984
:1015F00010B5D1F8BC100144184604F0CFFA012010
:1016000010BD0000688B00202DE9F047394EDFF84F
:10161000E8803A4F3568287A032818BF052815D086
:10162000072818BF082056D031680872344890F84F
:101630002C10002002F0E6FF3068007A082850D015
:10164000092804BF0120BDE8F08750E035F8100FED
:101650004FF03009A968A9B100B3AC88844288BFB3
:1016600004462046884782462888001B28806888D0
:10167000204468800020FFF761FC01462246504666
:1016800000F046F8288848B14FF44050A8F8000010
:101690000021084603F00CF8A7F800902888A988D4
:1016A000884203D331680320087211E018B1316811
:1016B000052008720CE031680620087211490020EC
:1016C0000968114A89B202EB41014860A7F800900D
:1016D0003068007AA8E70D480068C0688047082095
:1016E000A2E74FF48050A8F80000102038800020B6
:1016F000BDE8F0872C8100203A8100203C81002049
:1017000098800020505C0040006000403081002044
:10171000074B521C520803EB410108BF704700BF42
:1017200031F8043B20F8023B521EF9D1704700000B
:1017300000600040704770470648012101600021A9
:101740000160021D1160044A4FF4E05111800160F4
:1017500000207047405C004038810020044A002986
:10176000D16901D0014300E08143D161704700009D
:1017700000100240044A0029916901D0014300E0B1
:101780008143916170470000001002400B480168DE
:1017900041F0010101604168094A1140416001685E
:1017A000084A11400160016821F48021016042680B
:1017B000002122F4FE024260816070470010024066
:1017C0000000FFF8FFFFF6FE30B5204A5168204BBD
:1017D00011F00C0103D0042901D0082901D00360C5
:1017E00011E05168022401F4701104EB9141546836
:1017F000184D14F4803F02D05468A40301D5694306
:1018000000E0594301605168134B01F0F0010909F0
:101810005C5C0168E1404160546804F4E064240ABF
:101820001C5D21FA04F48460546804F46054E40AF2
:101830001B5DD940C1605268074B02F44042920BD5
:101840001B1F9A5CB1FBF2F1016130BD0010024038
:1018500000127A0000093D00FA5C000803460020EF
:101860005909094A012901D1116804E0022901D16D
:10187000116A00E0516A03F01F02012393400B42FA
:1018800000D001207047000000100240024840686C
:1018900000F00C007047000000100240034A51683D
:1018A00021F0F00101435160704700000010024038
:1018B0000B490A6822F480320A600A68B0F5803F5A
:1018C00022F480220A6007D0B0F5802F03D1086887
:1018D00040F4A02008607047086840F48030F9E7C1
:1018E0000010024070470000034A516821F4E06193
:1018F000014351607047000000100240034A5168E4
:1019000021F4605141EAC00050607047001002406D
:10191000014908667047000000004242034B5A68C4
:10192000084322F47C1210435860704700100240B4
:10193000034A516821F003010143516070470000E0
:10194000001002400149086070470000D800424280
:1019500030B50B4C40F2FF153120FFF77FFF2070B0
:101960006068401C6060207810B96068A842F3D1BC
:101970003120FFF773FF002800D0012030BD0000A8
:10198000408100202DE9F05FF74D4FF07E09287867
:10199000012857D0FFF70AFBA8B9FFF70DFB90B15C
:1019A000A5F67410D0F86C09A12818BFA0280AD099
:1019B000B12818BFB22806D0B32818BF7F2802D09C
:1019C000EA48C0F86C99E948E84F0026D0F86C095D
:1019D00001244FF0790807F2B14A4FF0020B7F283B
:1019E0007BD07BDC112800F0E18247DC4FF0FF0167
:1019F000002800F04282012800F08282022818BFED
:101A0000BDE8F09F2878012800F09D8207F2B240DF
:101A1000FFF71AFC07F2B440FFF70CFC07F2B540E1
:101A2000FFF704FC07F2BD40FFF708FCCF492E206A
:101A3000C1F86409084680F8B08480F8B14480F8A1
:101A4000DD84A9E068780028BDD100F0DDFF002822
:101A5000B9D100F0B3FE0028B5D0C448D0F86C0965
:101A6000A12818BFA028AED0B12818BFB228AAD08C
:101A7000B3281CBF7F282128A5D0A1E7212800F08A
:101A80001783312800F05383442818BFBDE8F09F26
:101A9000B64890F87009012800F03C81022818BF70
:101AA000BDE8F09F3878FF280BD00321AF4803F042
:101AB000ECFF002800F0CD833878FF2818BFBDE880
:101AC000F09F7878FF2806BFB8780028BDE8F09F1F
:101AD000A648D0F86009032801E068E019E018BFC3
:101AE000BDE8F09F2878012800F0C083A87800287E
:101AF00000F0C783012800F0CD83022855D1FFF7FD
:101B0000C1FC002851D09948C0F8644980F8B084DD
:101B100042E0B02800F011811FDCDFF854A2A028B9
:101B20007DD0A12852D0A2283FD1904890F87009CA
:101B3000012875D0022804BF3878022835D1FFF774
:101B40002BFACAF80000F878A870012869D002289A
:101B500004BFB87802F0EAFDD5E7B12800F019819A
:101B6000B22800F03F81B3281FD1804890F8700957
:101B7000012800F05181022804BF3878012814D1CF
:101B80002878012800F062817848C0F86449FFF79E
:101B900007FA764981F8B004744880F8686980F8DB
:101BA000694980F87069C0F86C99BDE8F09F2878A1
:101BB0000128A8D1687830B103F0A8FA002808BF3E
:101BC000BDE8F09F9FE700F011FE9CE7FFF7E4F906
:101BD000664A1C21CAF80000C2F864191146634B1A
:101BE00081F8B084102182F8B114092182F8B2146E
:101BF000162182F8B314082182F8B41482F8B5B41F
:101C0000802283F8B6241A4682F8B76482F8B814A2
:101C1000042182F8B914114681F8BA6402E048E060
:101C200078E086E081F8BB6490F8B41082F8BC14C8
:101C300090F8B51082F8BD14297882F8BE1469783E
:101C400082F8BF1490F8B31082F8C014D0F8BC101A
:101C5000090E82F8C114D0F8BC10090C82F8C21425
:101C6000B0F8BC10090A82F8C31490F8BC1082F8CE
:101C7000C414D0F8B810090E82F8C514D0F8B81002
:101C8000090C82F8C614B0F8B810090A82F8C71413
:101C900090F8B81082F8C81490F8B01082F8C914FF
:101CA000114690F8B10081F8CA04084680F8CB8448
:101CB00072E72E4890F8700901282BD0022806BF41
:101CC00038780C28BDE8F09FFFF766F9CAF80000E5
:101CD000797880F8B410B97880F8B510F97829705F
:101CE0003979697080F8B210797980F8B310D7F833
:101CF00006107A7A09BA21F0FF011143C0F8BC102E
:101D0000D7F80A107A7B09BA21F0FF011143C0F815
:101D1000B810F8E615481549C0F8644980F8B08451
:101D200080F8686980F86949022081F87009BDE887
:101D3000F09F787802F080FDE5E60C4890F8700995
:101D40000128E7D0022806BF38784728BDE8F09F71
:101D5000287801280ED0781C02F03EFD002808BF2C
:101D6000BDE8F09FCFE60000CC8A0020588100201B
:101D700014810020687840B10121781C03F0A4FB95
:101D8000002808BFBDE8F09FBDE6781C02F064F8AB
:101D9000B9E6FE4890F870090128BBD0022806BFBA
:101DA00038780F28BDE8F09F2878012807D0781CE4
:101DB000FEF7C6FA002808BFBDE8F09FA3E66878E2
:101DC000002807F1010006D003F03AF9002808BF07
:101DD000BDE8F09F97E600F065FC00287FF493AE25
:101DE000BDE8F09F2878012806D000F0DFFA00282F
:101DF00008BFBDE8F09F86E6687830B103F0E8FAE6
:101E0000002808BFBDE8F09F7DE601F061FF0028D3
:101E10007FF479AEBDE8F09F2878012806D0FFF75F
:101E2000CBF8002808BFBDE8F09F73E7687830B1B1
:101E300003F040F9002808BFBDE8F09F6AE700F012
:101E4000BDFC00287FF466AFBDE8F09F687858B10C
:101E500007F5966003F0ECF900281ABFCB48C0F8EC
:101E60006449BDE8F09F97E6C848C0F8644900F0AF
:101E700082FDC64981F8B0048EE6287801281CBF8F
:101E8000C24880F8B2142CD0C0490F20C1F86409B0
:101E9000084680F8B0840B2081F8B104084680F829
:101EA000B36480F8B44480F8B5B4112081F8B60466
:101EB000212081F8B704312081F8B804442081F84A
:101EC000B904632081F8BA04732081F8BB0482202E
:101ED00081F8BC04922081F8BD04084680F8BE84D5
:101EE0005AE66878002807F2B24006D003F054F9A9
:101EF000002808BFBDE8F09FC6E700F017FDC3E764
:101F0000287801281CBFA14880F8B1140DD09F4942
:101F10000520C1F86409084680F8B08480F8B264EE
:101F200080F8B36480F8B48436E6687800285046B8
:101F300006D003F031F9002808BFBDE8F09FE6E7BE
:101F400000F0F4FCE3E76878002807F2B2401ED006
:101F500003F094F9002808BFBDE8F09F07F2B440F1
:101F600003F01AF9002808BFBDE8F09F07F2B5405A
:101F700003F0ECF8002808BFBDE8F09F07F2BD4071
:101F800003F030F9002808BFBDE8F09F4EE500F0EF
:101F900023FD07F2B44000F0C9FC07F2B54000F0A1
:101FA000B5FC07F2BD4000F0D6FC3FE5774890F85D
:101FB000700901283FF4AEAE022830D0032818BFC4
:101FC000BDE8F09F7148D0F86009032818BFBDE84C
:101FD000F09F03216D4803F058FD002818BFBDE8AD
:101FE000F09F7878397800EB012080B2421C674975
:101FF000801CAA60C1F86409084680F8B08428787B
:10200000012832D0A87878B301284BD002287FF479
:10201000C3AD07F2B1416868FFF7DAFABCE55B4887
:10202000D0F86009052818BFBDE8F09F0521574882
:1020300003F02BFD002818BFBDE8F09F3868F97841
:1020400000BA20F0FF000843686050484F49C0F8CC
:10205000644980F8B08480F8686980F86949032091
:1020600081F87009BDE8F09F16E0687858B191B228
:10207000012307F2B142686803F080F9002808BF25
:10208000BDE8F09F88E542486968C260C0E9011A6E
:10209000047001F06BFA7FE507F2B140696803F064
:1020A0007DFD79E507F2B1416868FFF79FFA73E5B6
:1020B000364890F8700901283FF42CAE022818BF6A
:1020C000BDE8F09F3148D0F86009052818BFBDE889
:1020D000F09F05212D4803F0D8FC002818BFBDE86B
:1020E000F09F2878012811D03868F97800BA20F0DC
:1020F000FF0008436860FFF78CF868680068FEF727
:1021000085F868684068BDE8F05F0047687850B1BE
:102110003868F97800BA20F0FF0008436860BDE82D
:10212000F05F03F0D1B8BDE8F05F00F0B1BB174835
:1021300090F8700901283FF4EDAD022835D003284E
:1021400018BFBDE8F09F7878397800EB01201FFABE
:1021500080FA0E480AF10401D0F86009884218BFDD
:10216000BDE8F09F094803F090FC002818BFBDE8C7
:10217000F09F0AF10102AA602878012823D0A878EC
:10218000C0B301285DD0022804E00000588100207F
:102190004881002018BFBDE8F09FB91C6868FFF7B0
:1021A000BBF900287FF4AFAC5CE73D48D0F860098C
:1021B00005287FF457AF0521394803F066FC002855
:1021C0007FF450AF3AE7687848B191B20123BA1C66
:1021D000686803F03BF900283FF444AF93E43148CA
:1021E0006968416000F11201C0E90212047001F057
:1021F00097FD88E4FFE72C4968682C4B00EB010C45
:102200009C450BD200EB020C6144994206D2B91CEA
:10221000FEF7FEFC00287FF476AC23E76FF0005158
:1022200000EB010C47F6FE739C45BFF41BAF00EBBF
:10223000020C61449942BFF415AFB91C03F0AEFC27
:1022400061E4B91C6868FFF797F900287FF45BAC7C
:1022500008E73888124940BAA881D1F86019C01C33
:10226000814208BF00297FF4FDAE4CE4687828B1B4
:1022700003F04CF800283FF4F5AE44E400F0D4FD40
:1022800041E40B490B48FEF755FC00287FF43BACBA
:10229000E8E600BFFFF708F900287FF434ACE1E678
:1022A0005881002048810020FF7FFFF7FEF70100E2
:1022B000FF7702080080000870B5FEF733FE0025A6
:1022C00030B100F0E5FA022002F068FA2648057005
:1022D000264890F86809002808BF70BD234890F888
:1022E0006909002818BF70BDFEF7F4F9032002F059
:1022F00055FA1E48012490F87009D8B91B48D0F847
:102300006019022905D0012904BF00787F280BD06D
:1023100010E0017840780844FF280BD11348C0F83A
:102320006C1980F8704905E01049C1F86C0908463D
:1023300080F87049FFF726FB0C4890F869090028DF
:1023400018BF70BD09480949C0F864491F2081F8C9
:10235000B004084680F8685980F8694980F87059D7
:102360007E20C1F86C0970BDCC8A00205881002005
:102370000C4900200B4AC1F86009C1F864097E21AC
:10238000C2F86C19114681F8700981F8680981F862
:10239000690901F6741108700120487002208870E4
:1023A00070470000588100207047704710B5FEF755
:1023B0006FFB012010BD00002DE9F041284C0728DB
:1023C00018BF20702078274D062604274FF43F4879
:1023D000062841D2DFE800F0030D191F28332868D2
:1023E00080B220F004002860FEF7C8FEC5F8008027
:1023F00032E0286880B220F004002860FEF7BEFEBC
:10240000C5F800802770BDE8F081022060700320CD
:102410002070BDE8F0816078401E60706078002810
:1024200008BF2770BDE8F081286880B240F0100036
:102430002860052020700A206070BDE8F081607877
:10244000401E60706078002818BFBDE8F0812868E1
:1024500080B220F0100028602670BDE8F0810000F6
:1024600011810020405C0040704770477047704702
:102470002DE9F003864E00F0010306F1200CF37302
:10248000C0F34003B373C0F380037373C0F3C0039E
:102490003373C0F30013F372C0F34013B372C0F38D
:1024A00080137372C00930720023082021FA03F4EC
:1024B00004F001040CF8014C5C1C21FA04F49B1C90
:1024C00004F00104401E0CF8024D10F0FF00EDD1A5
:1024D000704B4FF40048C3F8008000BF00BF00BF3E
:1024E00000BF00BFDFF8B0C14FF40061CCF80010AE
:1024F00000BF00BF00BF00BF00BF00BF00BF00BFE4
:1025000000BF00BF196000BF00BF00BF00BF00BF19
:1025100000BF00BF00BF00BF00BFCCF8001000BF6D
:1025200000BF00BF00BF00BF00BF00BF00BF00BFB3
:1025300000BF196000BF00BF00BF00BF00BFDFF8D1
:102540005C91574D4FF40057345C002C14BFCCF80D
:1025500000701F60D9F8004014F4006418BF012413
:102560002C5400BF00BF00BF00BF00BFCCF800105C
:1025700000BF00BF00BF00BF00BF00BF00BF00BF63
:1025800000BF00BF196000BF00BF00BF00BF00BF99
:10259000401CC0B22028D7D3CCF8007000BF00BFC9
:1025A00000BF00BF00BFCCF8001000BF00BF00BFDD
:1025B00000BF00BF00BF00BF00BF00BF00BF196069
:1025C00000BF00BF00BF00BF00BF00BF00BF00BF13
:1025D00000BF00BFCCF8001000BF00BF00BF00BFAD
:1025E00000BF00BF00BF00BF00BF00BF196000BF39
:1025F00000BF00BF00BF00BF00BF00BF00BF00BFE3
:1026000000BFCCF8001000BF00BF00BF00BF00BF7C
:1026100000BF00BF00BF00BF00BF196000BF00BF08
:1026200000BF00BF00BF00BF00BF00BF00BF00BFB2
:10263000CCF8001000BF00BF00BF00BF00BF00BF4C
:1026400000BF00BF00BF00BF196000BF00BF00BFD8
:1026500000BF00BFCCF80080002005F11001108001
:1026600003464FF0100C012511F8014B2CB1C3F1BA
:102670000F0405FA04F4204380B25B1CACF1010C9A
:102680001CF0FF0CF0D11080BDE8F0037047000093
:10269000789400201418014010180140080C0140E3
:1026A000B89400202DE9F04F91B000248DF810402F
:1026B0004FF481626E46CDE905260546102204A836
:1026C000079200F053FF10222946684603F028FACB
:1026D000DFF8D0800125002801BF88F800500120D4
:1026E00011B0BDE8F08F40F2044004270797CDE910
:1026F000050604A800F03AFF9DF8000000284CD021
:10270000294E4FF480794FF05A3A20282CD24FF4BA
:10271000FE600DF1240B0797CDE9050B04A800F02E
:1027200025FFDDF82410002005FA00F20A4209D145
:10273000421C05FA02F20A4201D0401C02E0801C51
:102740002028F1D39DF8002082420DD905FA00F02F
:1027500021EA000009904FF4FE600797CDE9050BD0
:1027600004A801F0DDFA18E000F05EFB3470C6F852
:10277000049000F089FE4FF0A530CDE90EA04FF493
:10278000FF600B900EA80C9008200D908DF828404B
:102790000AA801F0C5FA88F8004011B00020BDE891
:1027A000F08F000020810020C49500200248002105
:1027B00001704170704700002081002000B587B093
:1027C00000208DF808004FF48060039004200590ED
:1027D000CDF810D002A800F0C9FE9DF800005528E1
:1027E0000CBF0120002007B000BD00002DE9F84318
:1027F00023480024ADF800404178002918BFBDE807
:10280000F8834FF0010880F8018000F043F900BF21
:1028100000BF00BF00BF00BF1A4D4FF4006028602A
:1028200000BF00BF00BF00BF00BF174E4FF40049FC
:10283000C6F80090771537601448047044708470AF
:1028400080F80380047144718471C4710A20FEF71A
:10285000BFF82F600A20FEF7BBF86A4641F67911EF
:102860000820FFF705FEC5F800900A20FEF7B0F833
:1028700037603220FEF7ACF800F04EF9BDE8F8837F
:102880002081002014180140101801407894002085
:1028900038B51A490020ADF800004A78002A08BF70
:1028A00038BD487000BF00BF00BF00BF00BF144A62
:1028B0004FF40061116000BF00BF00BF00BF00BF48
:1028C000104C4FF4004121608D1125600E49012309
:1028D000087048708870CB70087148718871C87131
:1028E00015600A20FEF774F86A4600210820FFF7F9
:1028F000BFFD256000F08EF838BD0000208100206B
:1029000014180140101801407894002000B585B0DB
:1029100000218DF800104FF47A71CDE901100820E4
:102920000390684600F022FE05B000BD10B586B0E9
:10293000044600208DF808004FF4797003900420BD
:102940000590CDF810D002A800F010FE9DF803000D
:10295000207006B010BD00B585B000218DF80010C4
:102960004FF48361CDE9011020200390684600F008
:10297000FDFD05B000BD70B586B04FF4FE6001905E
:1029800004A80426CDE9020600258DF8005068460B
:1029900000F0ECFD00240498012101FA04F2024247
:1029A00009D1621C01FA02F2024201D0641C02E069
:1029B000A41C202CF1D340F20440019005A8CDE9DD
:1029C00002068DF80050684600F0D0FD9DF8140016
:1029D00006B0001BC0B270BD10B586B00446002022
:1029E0008DF808004FF47970039004200590CDF81D
:1029F00010D002A800F0BAFD9DF8000020709DF8EC
:102A00000100607006B010BD0148007870470000FA
:102A100020810020F8B54FF40040ADF800000124FB
:102A20001A4F8DF8024004258DF803506946384648
:102A3000FEF718FAE602ADF800608DF802408DF856
:102A4000035069463846FEF70DFA6003ADF8000002
:102A50008DF802408DF8035069463846FEF702FAB9
:102A6000ADF800608DF802408DF8035069460848C3
:102A7000FEF7F8F96002ADF800008DF802408DF81D
:102A8000035069463846FEF7EDF9F8BD00180140DD
:102A9000000C0140F8B54FF40040ADF800000124EF
:102AA0001B4F8DF8024010258DF8035069463846BB
:102AB000FEF7D8F9E602ADF800608DF802408DF817
:102AC000035069463846FEF7CDF96003ADF80000C3
:102AD0008DF802408DF8035069463846FEF7C2F97A
:102AE000ADF800608DF8024048208DF8030069467B
:102AF0000848FEF7B7F96002ADF800008DF8024013
:102B00008DF8035069463846FEF7ACF9F8BD000071
:102B100000180140000C014010B4C14A4FF40044B9
:102B200014605314136000BF00BF00BF00BF00BF9C
:102B30004FF40060106000BF00BF00BF00BF00BFC7
:102B4000B8494FF0000C00BF00BF00BF00BF00BF7E
:102B5000086000BF00BF00BF00BF00BF00BF00BFD4
:102B600000BF00BF00BF106000BF00BF00BF00BFBC
:102B700000BF0CF1010C1FFA8CFCBCF1C80FE2D3B2
:102B80000B604FF0000C00BF00BF00BF00BF00BFD4
:102B9000086000BF00BF00BF00BF00BF00BF00BF94
:102BA00000BF00BF00BF106000BF00BF00BF00BF7C
:102BB00000BF0CF1010C1FFA8CFCBCF1FA0FE2D340
:102BC000136000BF00BF00BF00BF00BF086000BFB0
:102BD00000BF00BF00BF00BF00BF00BF00BF00BFFD
:102BE00000BF106000BF00BF00BF00BF00BF0B6090
:102BF00000BF00BF00BF00BF00BF086000BF00BF34
:102C000000BF00BF00BF00BF00BF00BF00BF00BFCC
:102C1000106000BF00BF00BF00BF00BF136000BF57
:102C200000BF00BF00BF00BF086000BF00BF00BF03
:102C300000BF00BF00BF00BF00BF00BF00BF1060EB
:102C400000BF00BF00BF00BF00BF0B6000BF00BFE0
:102C500000BF00BF00BF086000BF00BF00BF00BFD3
:102C600000BF00BF00BF00BF00BF00BF106000BFBB
:102C700000BF00BF00BF00BF0B6000BF00BF00BFB0
:102C800000BF00BF086000BF00BF00BF00BF00BFA3
:102C900000BF00BF00BF00BF00BF106000BF00BF8B
:102CA00000BF00BF00BF0C600B6000BF00BF00BFD3
:102CB00000BF00BF086000BF00BF00BF00BF00BF73
:102CC00000BF00BF00BF00BF00BF106000BF00BF5B
:102CD00000BF00BF00BF136000BF00BF00BF00BF48
:102CE00000BF086000BF00BF00BF00BF00BF00BF43
:102CF00000BF00BF00BF00BF106000BF00BF00BF2B
:102D000000BF00BF0B6000BF00BF00BF00BF00BF1F
:102D1000086000BF00BF00BF00BF00BF00BF00BF12
:102D200000BF00BF00BF106000BF00BF00BF00BFFA
:102D300000BF136000BF00BF00BF00BF00BF08603E
:102D400000BF00BF00BF00BF00BF00BF00BF00BF8B
:102D500000BF00BF106000BF00BF00BF00BF00BFCA
:102D60000B6000BF00BF00BF00BF00BF086000BF16
:102D700000BF00BF00BF00BF00BF00BF00BF00BF5B
:102D800000BF106000BF00BF00BF00BF00BF0B60EE
:102D900000BF00BF00BF00BF00BF086000BF00BF92
:102DA00000BF00BF00BF00BF00BF00BF00BF00BF2B
:102DB000106000BF00BF00BF00BF00BF14600B6009
:102DC00000BF00BF00BF00BF00BF086000BF00BF62
:102DD00000BF00BF00BF00BF00BF00BF00BF00BFFB
:102DE000106000BF00BF00BF00BF00BF0B6000BF8E
:102DF00000BF00BF00BF00BF086000BF00BF00BF32
:102E000000BF00BF00BF00BF00BF00BF00BF106019
:102E100000BF00BF00BF00BF00BF10BC7047000074
:102E2000141801401018014070B42A484FF4007182
:102E30000122018000F1AC0140F211230A8043809D
:102E40004A8040F2192CA0F804C04FF0030CA1F8FE
:102E500004C040F2592CA0F806C041F2F45CA1F87D
:102E600006C040F2512CA0F808C04FF0190CA1F890
:102E700008C043814A8140F2022383818A81002174
:102E800000F1200401EB810204EB4202531E0022F8
:102E90004FF0050C30F81150ACF1010CD54005F0A5
:102EA00001055D7030F81150561CF54005F0010524
:102EB000921C03F8025F1CF0FF0CEBD1491CC9B255
:102EC0000729DFD370BC072340F6282211460020D3
:102ED00000F002B8F89400202DE9FF4F00F0010344
:102EE000DFF84CC48EB040088CF8003000F00103CD
:102EF0008CF80130C0F340008CF802000CF10200A5
:102F00005FF0080401F0010343704B0803F0010176
:102F100000F8021F5908641EF4D10CF112001021B0
:102F200002F001034370530803F0010200F8022F7E
:102F30005A08491EF4D1FF4C4FF40045256000BFEC
:102F400000BF00BF00BF00BF4FF40060206000BFA3
:102F500000BF00BF00BF00BF00BF00BF00BF00BF79
:102F600000BFF549086000BF00BF00BF00BF00BF41
:102F70000D6000224FF400531CF80260002E14BFB5
:102F800023600B6000BF00BF00BF00BF00BF206018
:102F900000BF00BF00BF00BF00BF00BF00BF00BF39
:102FA00000BF00BF086000BF00BF00BF00BF00BF80
:102FB000521CD2B2032ADFD34FF40042226000BF7A
:102FC00000BF00BF00BF00BF206000BF00BF00BF48
:102FD00000BF00BF00BF00BF00BF00BF00BF086050
:102FE00000BF00BF00BF00BF00BF0A605FF000026B
:102FF0000CEB0205ED78002D14BF23600B6000BFC1
:1030000000BF00BF00BF00BF206000BF00BF00BF07
:1030100000BF00BF00BF00BF00BF00BF00BF08600F
:1030200000BF00BF00BF00BF00BF521CD2B2102AB9
:10303000DED300220CEB0204E47C002C1ABFBD4C52
:1030400023600B6000BF00BF00BF00BF00BFB94CD2
:10305000206000BF00BF00BF00BF00BF00BF00BFB7
:1030600000BF00BF00BF086000BF00BF00BF00BFBF
:1030700000BF521CD2B2202ADCD3119A4FF0000CB0
:10308000002A84BF521E039240F24A81AB4A0024B8
:1030900032F81C50002D40F23B810CEB8C025700A3
:1030A000A74AD65D3A44079656780D9696780C96C0
:1030B000D6780B9692F804B092F805A092F8069094
:1030C00092F80780177A567A079A002A1ABF994A07
:1030D00013600B6000BF00BF00BF00BF00BF954A78
:1030E000106000BF00BF00BF00BF00BF00BF00BF37
:1030F00000BF00BF00BF086000BF00BF00BF00BF2F
:1031000000BFDDF834E0BEF1000F14BF13600B60A8
:1031100000BF00BF00BF00BF00BF106000BF00BF06
:1031200000BF00BF00BF00BF00BF00BF00BF00BFA7
:10313000086000BF00BF00BF00BF00BFDDF830E087
:10314000BEF1000F14BF13600B6000BF00BF00BFD3
:1031500000BF00BF106000BF00BF00BF00BF00BFC6
:1031600000BF00BF00BF00BF00BF086000BF00BFBE
:1031700000BF00BF00BFDDF82CE0BEF1000F14BFA0
:1031800013600B6000BF00BF00BF00BF00BF106036
:1031900000BF00BF00BF00BF00BF00BF00BF00BF37
:1031A00000BF00BF086000BF00BF00BF00BF00BF7E
:1031B000BBF1000F14BF13600B6000BF00BF00BF66
:1031C00000BF00BF106000BF00BF00BF00BF00BF56
:1031D00000BF00BF00BF00BF00BF086000BF00BF4E
:1031E00000BF00BF00BFBAF1000F14BF13600B6037
:1031F00000BF00BF00BF00BF00BF106000BF00BF26
:1032000000BF00BF00BF00BF00BF00BF00BF00BFC6
:10321000086000BF00BF00BF00BF00BFB9F1000FD2
:1032200014BF13600B6000BF00BF00BF00BF00BF32
:10323000106000BF00BF00BF00BF00BF00BF00BFE5
:1032400000BF00BF00BF086000BF00BF00BF00BFDD
:1032500000BFB8F1000F14BF13600B6000BF00BFC8
:1032600000BF00BF00BF106000BF00BF00BF00BFB5
:1032700000BF00BF00BF00BF00BF00BF086000BFAD
:1032800000BF00BF00BF00BF002F14BF13600B6062
:1032900000BF00BF00BF00BF00BF106000BF00BF85
:1032A00000BF00BF00BF00BF00BF00BF00BF00BF26
:1032B000086000BF00BF00BF00BF00BFDDF80CE02A
:1032C000F44501BFA5F1010EA6454FF4004EC2F82A
:1032D00000E0002E14BF13600B6000BF00BF00BFF2
:1032E00000BF00BF106000BF00BF00BF00BF00BF35
:1032F00000BF00BF00BF00BF00BF086000BF00BF2D
:1033000000BF00BF00BF641CA5423FF6DDAE00BF9A
:103310000CF1010202F0FF0C119A62453FF6B6AEC5
:103320004FF400430B6000BF00BF00BF00BF09E0C7
:10333000789400201018014014180140A495002032
:103340001895002000BF4F4A106000BF00BF00BFAB
:1033500000BF00BF00BF00BF00BF00BF00BF0860CC
:1033600000BF00BF00BF00BF00BF0B6000BF00BFB9
:1033700000BF00BF00BF106000BF00BF00BF00BFA4
:1033800000BF00BF00BF00BF00BF00BF086000BF9C
:1033900000BF00BF00BF00BF136000BF00BF00BF81
:1033A00000BF00BF106000BF00BF00BF00BF00BF74
:1033B00000BF00BF00BF00BF00BF086000BF00BF6C
:1033C00000BF00BF00BF0B6000BF00BF00BF00BF59
:1033D00000BF106000BF00BF00BF00BF00BF00BF44
:1033E00000BF00BF00BF00BF086000BF00BF00BF3C
:1033F00000BF00BF00BF00BF00BF00BF00BF106024
:1034000000BF00BF00BF00BF00BF00BF00BF00BFC4
:1034100000BF00BF086000BF00BF00BF00BF00BF0B
:10342000136000BF00BF00BF00BF00BF106000BF3F
:1034300000BF00BF00BF00BF00BF00BF00BF00BF94
:1034400000BF086000BF00BF00BF00BF00BF0B602F
:1034500000BF00BF00BF00BF00BF106000BF00BFC3
:1034600000BF00BF00BF00BF00BF00BF00BF00BF64
:10347000086000BF00BF00BF00BF00BF12B0BDE8C2
:10348000F08F0000101801402DE9F001354C4FF489
:103490000077A4F1200194F80080A1F1AC00012292
:1034A00003231925BE1C078041F2F45CB8F1000F1C
:1034B0000A8015D0771E47804A8040F20928A0F87C
:1034C00004808B8040F24923C380A1F806C040F2FB
:1034D000412303810D8147814A8186818A8115E0DC
:1034E00040F2812747804A8040F28928A0F8048072
:1034F0008B8040F2C923C380A1F806C040F2C123EB
:1035000003810D8147814A8186818A81164D002180
:1035100001EB810205EB4202531E00224FF0050C25
:1035200030F81160ACF1010CD64006F001065E7077
:1035300030F81160571CFE4006F00106921C03F89B
:10354000026F1CF0FF0CEBD1491CC9B20729DFD375
:103550006168BDE8F001072340F628220020FFF74C
:10356000BBBC0000C4950020189500202DE9F04157
:1035700005460378344802220126A0F1AC017BB154
:1035800040F201230B80028012024A80D21C468046
:103590008A808680131DCB80C6800A8106810EE05A
:1035A00040F281230B8002805A1E4A80D21C468042
:1035B0008A808680131DCB80C6800A8106812348BD
:1035C000002200BF02EB820300EB4303A3F1010CD6
:1035D0000023052431F8127003F10108DF4007F0E1
:1035E00001078CF8017031F8127027FA08F707F01C
:1035F00001079B1C0CF8027F641EEBD1521C052AAC
:10360000E0D36868124F80087860A868B8607E7060
:1036100000F020F8E8680124B6EB900F34BF0026D4
:10362000BDE8F081686804EB90007860A86800EB62
:103630008400B8607E7000F00DF8E868641CB4EB9C
:10364000900FEFD3BDE8F081A495002018950020DD
:10365000C49500202DE9F04FFE4EDFF8FC838EB0BC
:103660007778002F14BF0120032000F0010188F8B3
:1036700000104FEA500088F801004FEA500088F827
:1036800002004FF0030C1ED0D6F804004FF00001EA
:103690004FF008030CEB0102D5B200F0010408F86A
:1036A00005404FEA500002F1010200F00104D2B2DD
:1036B0004FEA500008F80240A3F1010201F10201B3
:1036C00012F0FF03E6D1E5494FF4004500220D60FA
:1036D00000BF00BF00BF00BF00BF4FF40060086024
:1036E00000BF00BF00BF00BF00BF00BF00BF00BFE2
:1036F00000BF00BFDA4C206000BF00BF00BF00BFAA
:1037000000BF25604FF0000C4FF40053DFF84883F2
:1037100018F80290521CD2B2B9F1000F14BF0B601E
:10372000236000BF00BF00BF00BF00BF086000BF34
:1037300000BF00BF00BF00BF00BF00BF00BF00BF91
:1037400000BF206000BF00BF00BF00BF00BF0CF182
:10375000010C0CF0FF0CBCF1030FD7D30D6000BFC0
:1037600000BF00BF00BF00BF086000BF00BF00BFB8
:1037700000BF00BF00BF00BF00BF00BF00BF206090
:1037800000BF00BF00BF00BF00BF2560002F1CBFEF
:103790004FF0000CB04E23D0B75C521CD2B2002FB9
:1037A00014BF0B60236000BF00BF00BF00BF00BF9D
:1037B000086000BF00BF00BF00BF00BF00BF00BF68
:1037C00000BF00BF00BF206000BF00BF00BF00BF40
:1037D00000BF0CF1010C0CF0FF0CBCF1100FDBD39F
:1037E000A04A4FF0000C1289521E02929D480024FC
:1037F00030F81C50002D40F247810CEB8C009A4AA7
:103800004000165C1044059642780D9282780C9226
:10381000C2780B9290F804B090F805A090F806904A
:1038200090F80780077A467A8D4A0598002814BFD9
:103830000B60136000BF00BF00BF00BF00BF4FF4AC
:103840000060086000BF00BF00BF00BF00BF00BF36
:1038500000BF00BF00BF00BF106000BF00BF00BFBF
:1038600000BF00BFDDF834E0BEF1000F14BF0B60F5
:10387000136000BF00BF00BF00BF00BF086000BFF3
:1038800000BF00BF00BF00BF00BF00BF00BF00BF40
:1038900000BF106000BF00BF00BF00BF00BFDDF869
:1038A00030E0BEF1000F14BF0B60136000BF00BF1B
:1038B00000BF00BF00BF086000BF00BF00BF00BF67
:1038C00000BF00BF00BF00BF00BF00BF106000BF4F
:1038D00000BF00BF00BF00BFDDF82CE0BEF1000F4D
:1038E00014BF0B60136000BF00BF00BF00BF00BF6C
:1038F000086000BF00BF00BF00BF00BF00BF00BF27
:1039000000BF00BF00BF106000BF00BF00BF00BF0E
:1039100000BFBBF1000F14BF0B60136000BF00BFFE
:1039200000BF00BF00BF086000BF00BF00BF00BFF6
:1039300000BF00BF00BF00BF00BF00BF106000BFDE
:1039400000BF00BF00BF00BFBAF1000F14BF0B6083
:10395000136000BF00BF00BF00BF00BF086000BF12
:1039600000BF00BF00BF00BF00BF00BF00BF00BF5F
:1039700000BF106000BF00BF00BF00BF00BFB9F1B3
:10398000000F14BF0B60136000BF00BF00BF00BF7B
:1039900000BF086000BF00BF00BF00BF00BF00BF86
:1039A00000BF00BF00BF00BF106000BF00BF00BF6E
:1039B00000BF00BFB8F1000F14BF0B60136000BF61
:1039C00000BF00BF00BF00BF086000BF00BF00BF56
:1039D00000BF00BF00BF00BF00BF00BF00BF10603E
:1039E00000BF00BF00BF00BF00BF002F14BF0B60AF
:1039F000136000BF00BF00BF00BF00BF086000BF72
:103A000000BF00BF00BF00BF00BF00BF00BF00BFBE
:103A100000BF106000BF00BF00BF00BF00BFBCF10F
:103A2000040F01BFDDF808E0A6454FF4004EC1F8D1
:103A300000E0002E14BF0B60136000BF00BF00BF8A
:103A400000BF00BF086000BF00BF00BF00BF00BFD5
:103A500000BF0BE0C49500207894002010180140AE
:103A600014180140A49500201895002000BF00BF45
:103A700000BF00BF106000BF00BF00BF00BF00BF9D
:103A8000641CA5423FF6D1AE0CF1010000F0FF0C22
:103A9000BCF1050FFFF4AAAE894C4FF40046266036
:103AA00000BF00BF00BF00BF00BF4FF4006CC1F8F3
:103AB00000C000BF00BF00BF00BF00BF00BF00BF0D
:103AC00000BF00BF00BFC4F800C000BF00BF00BF00
:103AD00000BF00BF00BF00BF00BF00BF00BFC1F8F4
:103AE00000C000BF00BF00BF00BF00BF00BF00BFDD
:103AF00000BF00BF00BFC4F800C000BF00BF00BFD0
:103B000000BF00BF00BF00BF00BF00BF00BFC1F8C3
:103B100000C000BF00BF00BF00BF00BF00BF00BFAC
:103B200000BF00BF00BFC4F800C000BF00BF00BF9F
:103B300000BF00BF0020634F634D0B603A6812F472
:103B4000006218BF01222A5400BF00BF00BF00BF9F
:103B500000BFC1F800C000BF00BF00BF00BF00BF72
:103B600000BF00BF00BF00BF00BFC4F800C000BF5F
:103B700000BF00BF00BF00BF401CC0B21F28DCD385
:103B80000E600B603A6812F4006218BF01222A54DA
:103B900000BF00BF00BF00BF00BFC1F800C000BF32
:103BA00000BF00BF00BF00BF00BF00BF00BF00BF1D
:103BB00000BFC4F800C000BF00BF00BF00BF00BF0F
:103BC000266000BF00BF00BF00BF00BFC1F800C03B
:103BD00000BF00BF00BF00BF00BF00BF00BF00BFED
:103BE00000BF00BFC4F800C000BF00BF00BF00BFDF
:103BF00000BF00BF00BF00BF00BF00BFC1F800C0D2
:103C000000BF00BF00BF00BF00BF00BF00BF00BFBC
:103C100000BF00BFC4F800C000BF00BF00BF00BFAE
:103C200000BF0E6000BF00BF00BF00BF00BFC1F8F3
:103C300000C000BF00BF00BF00BF00BF00BF00BF8B
:103C400000BF00BF00BFC4F800C000BF00BF00BF7E
:103C500000BF00BF266000BF00BF00BF00BF00BFA5
:103C6000C1F800C000BF00BF00BF00BF00BF00BF61
:103C700000BF00BF00BF00BFC4F800C000BF00BF4E
:103C800000BF00BF00BF002001220F495FF02003EA
:103C900011F801CBBCF1000F18BF104352005B1E9E
:103CA000F6D10A498A6810708B68020A5A708B68CC
:103CB000020C000E9A708968C8700EB0BDE8F08FD3
:103CC00014180140080C014078940020C49500208D
:103CD00010B586B0FFF7A8F80F4800244FF48071A4
:103CE00004704160FFF7D0FB4FF05A3004904FF062
:103CF000A53005904FF4FF60019004A802900820C1
:103D000003908DF80040684600F00AF8034901204E
:103D10000C7006B010BD0000C4950020208100206A
:103D20002DE9F041054690F800C0484806220223DC
:103D30000126A0F1AC01BCF1000F21D04FF4007CB2
:103D4000A1F800C0068040F201244C80468040F279
:103D500021278F80868040F26127CF80C68040F285
:103D60006328A1F8088002814F81468140F24122F8
:103D70008A818381CC81C681A1F810C0068220E0AF
:103D80004FF4207CA1F800C0068040F281244C80D2
:103D9000468040F2A1278F80868040F2E127CF80C5
:103DA000C68040F2E328A1F8088002814F81468155
:103DB00040F2C1228A818381CC81C681A1F810C0E2
:103DC00006822348002200BF02EB820300EB43037C
:103DD000A3F1010C0023052431F8127003F101084E
:103DE000DF4007F001078CF8017031F8127027FAF4
:103DF00008F707F001079B1C0CF8027F641EEBD14B
:103E0000521C092AE0D36868124F80087860A868BD
:103E1000B8607E7000F0AAF8E8680124B6EB900F55
:103E200034BF0026BDE8F081686804EB900078603C
:103E3000A86800EB8400B8607E7000F097F8E8682E
:103E4000641CB4EB900FEFD3BDE8F081A495002083
:103E500018950020C49500202DE9F0438DB005464B
:103E6000FEF7E2FF3F4800244FF480710470416088
:103E7000FFF70AFB4FF05A300A904FF0A5300B9035
:103E80004FF4FF6005900AA80826CDE906068DF8D4
:103E9000104004A8FFF744FF334F4FF001081022F1
:103EA0003C70FF2105F1340001F053FE58B105F1DB
:103EB00034008DF810404FF47A710796CDE9051063
:103EC00004A8FFF753FB04268DF8004040F204409D
:103ED0000396CDE901056846FFF722FF4FF48160A4
:103EE0000190281D4FF01009CDE902098DF800401E
:103EF0006846FFF715FF4FF48360019005F1140049
:103F00000290202003908DF800406846FFF708FFDC
:103F10004FF48760019005F13400CDE902098DF876
:103F200000406846FFF7FCFE4FF48960019005F100
:103F30004400CDE902068DF800406846FFF7F0FE28
:103F400055208DF820003002019008A8CDE9020626
:103F50008DF800406846FFF7E3FE87F800800DB05B
:103F6000BDE8F083C4950020208100202DE9F04FAA
:103F7000FF4F0020DFF8FCC37D788EB0002D08BF16
:103F8000022000F001018CF800104FEA50008CF87C
:103F900001004FEA50008CF802004FF0030120D0DE
:103FA000D7F804204FF000004FF0080301EB0004A5
:103FB00004F0FF0802F001060CF808604FEA520214
:103FC00004F1010402F00106E4B2A3F101030CF8CC
:103FD00004604FEA520200F1020013F0FF03E5D142
:103FE0001031B8680278D0F8010042EA00200022BF
:103FF0005FF010038E1800F00104F7B240080CF8CF
:10400000074000F00107741CE4B24008921C5B1EDC
:104010000CF8047013F0FF03ECD1D7494FF40047BC
:1040200000200F6000BF00BF00BF00BF00BF4FF403
:1040300000640C6000BF00BF00BF00BF00BF00BF36
:1040400000BF00BF00BF00BFCC4A146000BF00BF6C
:1040500000BF00BF00BF17604FF400561CF800807F
:10406000401CC0B2B8F1000F14BF0E60166000BF54
:1040700000BF00BF00BF00BF0C6000BF00BF00BF9B
:1040800000BF00BF00BF00BF00BF00BF00BF146083
:1040900000BF00BF00BF00BF00BF5B1CDBB2032B33
:1040A000DCD30F6000BF00BF00BF00BF00BF0C60CB
:1040B00000BF00BF00BF00BF00BF00BF00BF00BF08
:1040C00000BF00BF146000BF00BF00BF00BF00BF43
:1040D0001760002D18BF002322D000BF1CF800502D
:1040E000401CC0B2002D14BF0E60166000BF00BFA0
:1040F00000BF00BF00BF0C6000BF00BF00BF00BF1B
:1041000000BF00BF00BF00BF00BF00BF146000BF02
:1041100000BF00BF00BF00BF5B1CDBB2102BDDD3B4
:104120005FF000031CF80050401CC0B2002D14BF0B
:104130000E60166000BF00BF00BF00BF00BF0C6074
:1041400000BF00BF00BF00BF00BF00BF00BF00BF77
:1041500000BF00BF146000BF00BF00BF00BF00BFB2
:104160005B1CDBB2202BDDD385484FF0000C008AAE
:10417000401E03908248002430F81C50002D40F26D
:1041800049810CEB8C0043007E48C65C18440796BE
:1041900043780D9383780C93C3780B9390F804B015
:1041A00090F805A090F8069090F80780077A467A74
:1041B0004FF400530798002814BF0B60136000BF32
:1041C00000BF00BF00BF00BF4FF40060086000BF29
:1041D00000BF00BF00BF00BF00BF00BF00BF00BFE7
:1041E00000BF106000BF00BF00BF00BF00BFDDF810
:1041F00034E0BEF1000F14BF0B60136000BF00BFBE
:1042000000BF00BF00BF086000BF00BF00BF00BF0D
:1042100000BF00BF00BF00BF00BF00BF106000BFF5
:1042200000BF00BF00BF00BFDDF830E0BEF1000FEF
:1042300014BF0B60136000BF00BF00BF00BF00BF12
:10424000086000BF00BF00BF00BF00BF00BF00BFCD
:1042500000BF00BF00BF106000BF00BF00BF00BFB5
:1042600000BFDDF82CE0BEF1000F14BF0B6013603F
:1042700000BF00BF00BF00BF00BF086000BF00BF9D
:1042800000BF00BF00BF00BF00BF00BF00BF00BF36
:10429000106000BF00BF00BF00BF00BFBBF1000F38
:1042A00014BF0B60136000BF00BF00BF00BF00BFA2
:1042B000086000BF00BF00BF00BF00BF00BF00BF5D
:1042C00000BF00BF00BF106000BF00BF00BF00BF45
:1042D00000BFBAF1000F14BF0B60136000BF00BF36
:1042E00000BF00BF00BF086000BF00BF00BF00BF2D
:1042F00000BF00BF00BF00BF00BF00BF106000BF15
:1043000000BF00BF00BF00BFB9F1000F14BF0B60BA
:10431000136000BF00BF00BF00BF00BF086000BF48
:1043200000BF00BF00BF00BF00BF00BF00BF00BF95
:1043300000BF106000BF00BF00BF00BF00BFB8F1EA
:10434000000F14BF0B60136000BF00BF00BF00BFB1
:1043500000BF086000BF00BF00BF00BF00BF00BFBC
:1043600000BF00BF00BF00BF106000BF00BF0BE078
:10437000C4950020789400201018014014180140C2
:10438000A49500201895002000BF00BF00BF002F9B
:1043900014BF0B60136000BF00BF00BF00BF00BFB1
:1043A000086000BF00BF00BF00BF00BF00BF00BF6C
:1043B00000BF00BF00BF106000BF00BF00BF00BF54
:1043C00000BFBCF1080F01BFDDF80CE0A6454FF4BB
:1043D000004EC1F800E0002E14BF0B60136000BF58
:1043E00000BF00BF00BF00BF086000BF00BF00BF2C
:1043F00000BF00BF00BF00BF00BF00BF00BF106014
:1044000000BF00BF00BF00BF00BF641CA5423FF655
:10441000D1AE00BF0CF1010000F0FF0CBCF1090FA0
:10442000FFF4A8AE4FF40043136000BF00BF00BF0D
:1044300000BF00BF4FF40060086000BF00BF00BFB6
:1044400000BF00BF00BF00BF00BF00BF00BF1060C3
:1044500000BF00BF00BF00BF00BF136000BF00BFB0
:1044600000BF00BF00BF086000BF00BF00BF00BFAB
:1044700000BF00BF00BF00BF00BF00BF106000BF93
:1044800000BF00BF00BF00BF0B6000BF00BF00BF88
:1044900000BF00BF086000BF00BF00BF00BF00BF7B
:1044A00000BF00BF00BF00BF00BF106000BF00BF63
:1044B00000BF00BF00BF136000BF00BF00BF00BF50
:1044C00000BF086000BF00BF00BF00BF00BF00BF4B
:1044D00000BF00BF00BF00BF106000BF00BF00BF33
:1044E00000BF00BF00BF00BF00BF00BF00BF08602B
:1044F00000BF00BF00BF00BF00BF00BF00BF00BFC4
:1045000000BF00BF106000BF00BF00BF00BF00BF02
:104510000B6000BF00BF00BF00BF00BF086000BF4E
:1045200000BF00BF00BF00BF00BF00BF00BF00BF93
:1045300000BF106000BF00BF00BF00BF00BF13601E
:1045400000BF00BF00BF00BF00BF086000BF00BFCA
:1045500000BF00BF00BF00BF00BF00BF00BF00BF63
:10456000106000BF00BF00BF00BF00BF0EB0BDE8BD
:10457000F08F7047024920F0070008607047000084
:10458000505C004070B4144991F800C0BCF1000FB9
:104590001CD0124A1CF0010148F68F7302D0146837
:1045A0001C401460614511D2CDB202EB850426682F
:1045B0001E40354325604C1CE4B202EB84052E6896
:1045C0001E4034432C60891C6145EDD3044940F002
:1045D0008000086070BC704770800020005C004064
:1045E0004C5C0040054A21F00101126892B202EBD6
:1045F000C000034A02EB400081607047505C0040FD
:10460000006000400E4A12683E2992B202EBC000E0
:104610000C4A02EB40020BD9480911F01F0F04BFEE
:10462000401E80B24FF4004141EA80201060704784
:10463000480811F0010F18BF401C8002F6E7000087
:10464000505C00400C600040094A02EB8002106898
:104650004BF68F73184011F4805F18BF80F48050C0
:1046600011F4005F18BF80F4005010607047000024
:10467000005C0040054901EB800001684BF68F7239
:10468000114081F44051016070470000005C00401F
:10469000054A21F00101126892B202EBC000034A00
:1046A00042F8101070470000505C0040006000406D
:1046B000044A126892B202EBC000034A02EB4000C7
:1046C00041607047505C004000600040094A02EBC6
:1046D0008002106848F6BF73184011F0100F18BF21
:1046E00080F0100011F0200F18BF80F02000106043
:1046F00070470000005C0040054901EB8000016844
:1047000048F6BF72114081F030010160704700002F
:10471000005C0040044A02EB8000026848F68F13F8
:104720001A40114301607047005C004010B5164C00
:1047300094F8B110814225D084F8B10040F20F11F5
:10474000204601F0A2F984F80F0194F8B10040B9B5
:1047500080220021204601F037FA0C490C48FCF772
:10476000E9F90D4C0B492046FCF7E4F9002808BF95
:1047700010BD4FF4887204492046FCF749FA00281E
:1047800008BF10BD012010BD688B0020FF7F050809
:10479000000004080F7902080078020870B50C4C7C
:1047A0000128E06018BF70BD012060706568094E87
:1047B00020213046FCF7ADFB6168491BB1F57A7FDB
:1047C000FAD33046BDE870402021FCF7A4BB0000BE
:1047D00000800020000C014010B5134C0146482217
:1047E00004F1C00001F0DAF9552084F8080140F224
:1047F0000F11204601F049F984F80F010C4C0B49C8
:104800002046FCF797F9002808BF10BD4FF48872C6
:1048100005492046FCF7FCF9002808BF10BD01201F
:104820000449087010BD0000688B00200F79020851
:10483000007802081881002010B5174C94F8B010C9
:10484000814226D084F8B00040F20F11204601F0DA
:104850001CF984F80F0194F8B00048B93022002107
:1048600004F1800001F0B0F90C490D48FCF762F941
:104870000D4C0C492046FCF75DF9002808BF10BD1F
:104880004FF4887204492046FCF7C2F9002808BF9B
:1048900010BD012010BD0000688B0020FFFF030841
:1048A000008002080F79020800780208F0B585B090
:1048B000FCF76CFF4FF48030FCF7FAFFFDF748F887
:1048C0003F4D0128287025D11020FCF795F90220D2
:1048D000FCF7E8F90020FCF7E1FF0020FDF70EF8F7
:1048E0004FF48060FDF700F84FF4E0114FF4803092
:1048F000FDF714F80120FDF70BF83920FCF7AEFFA7
:104900000028FAD00220FDF713F800BFFCF7BEFF25
:104910000828FBD1012144F20500FCF72BFF0121FF
:104920004804FCF71BFFFCF7EBF901210846FCF7F4
:1049300021FF04210846FCF781FA10200024009092
:104940008DF804400C268DF8056001208DF80600D6
:104950006846FCF757F81020FCF74EF8ADF8084011
:10496000ADF80A604FF49630164E0090ADF8044052
:10497000ADF80640ADF80C406946304600F062FEE6
:10498000114F6946384600F05DFE0121304600F0C7
:1049900048FE0121384600F044FE6C606C7041F224
:1049A0008830A86042F2283000F034FB012000F08B
:1049B00025FB05B00120BDE8F04000F00DBB000074
:1049C00000800020004400400038014010B5002065
:1049D000FCF7B8FF0121BDE81040C805FCF7BEBEDA
:1049E0002DE9F84FDFF89CA3DAF80000DFF8988390
:1049F00080B208EB4000E54C008980B208EB40052E
:104A00002068017A092911D015F8011B017015F8E9
:104A1000011B41706888FBF70EFD21684880E8881B
:104A2000FBF709FD216888806889C8802068012516
:104A3000D74A0572B0F806C0D649D74E4FF00009E4
:104A4000BCF1000F0FD043780927062B00F0C88077
:104A5000002B00F0DA80082B00F01A810A2B00F0FE
:104A60001E8100F036B903784578CC4F13F07F0FE4
:104A700006D003F07F03012B41D0022B5AD096E0E1
:104A8000092D0BD0052D18D0032D23D0012D01BFEA
:104A9000C1780129818800292CD088E0C17852781A
:104AA00091429CBF8278002A04BF8288002A7ED16E
:104AB000817238684068804784E0C1787F299CBF54
:104AC000817800297CD18188002904BF807A002860
:104AD00076D177E0C178012904BF8188002966D1A9
:104AE000417A11F0200F62D041F020014172386804
:104AF000C06958E0407A10F0200F20D157E00B2D0C
:104B000055D13268C17840799269904721688A7A94
:104B1000002A4CD0002801BF087900288878002896
:104B200045D13868C068804720684179C172C17832
:104B3000017347E0012D02D0032D04D037E000F0CF
:104B40003DF990BB3EE090F805C02CF080031CF0CE
:104B5000800F51F823B019BFCBF3011B4FEA0B1B99
:104B6000CBF3013B4FEA0B3B12789A421FD94288A4
:104B7000DAB9BBF1000F1CBF807A002817D001EB17
:104B800083001CF0800F016814BF48F6BF724BF61B
:104B90008F7201EA020114BF81F0100181F480518B
:104BA00001603868806980470CE000E008E0316807
:104BB000284649698847032808BF09200DD008B155
:104BC00008200AE0DAF80010062089B208EB41015B
:104BD0003022C1F8049072490A8021680872B6E058
:104BE000017811F07F0F74D18078012804BF3068FC
:104BF000C16944D0022804BF3068016A3FD003284D
:104C000004BF3068416A3AD063E04388002B02BF9A
:104C1000BCF1020F0379002B5BD1037813F07F0FF7
:104C200004BFB0F804C0BCF1000F27D003F07F032D
:104C3000012B02D0022B0AD04BE0316840798A69FF
:104C400000219047F0BB2068807AB8B941E04379F1
:104C500003F00F0003F0700C51F8201013F0800FD8
:104C600019BFC1F301110901C1F301310903127820
:104C700082422ED9BCF1000F2BD119B3494909B397
:104C80002068A0F8129081610020884700202AE067
:104C9000007810F07F0F08BF43491AD1EFE7017881
:104CA00001F07F01012914D1817A59B1418800298D
:104CB00002BF01790029BCF1010F0AD131684079A6
:104CC0008A6900E005E000219047002808BF3749C5
:104CD000D5D031682068096940788847032804BF27
:104CE0002068077233D02268118AA1F57F43FF3B09
:104CF00008BF17722BD0022812BF0029082010729B
:104D000025D0107810F0800F1CD0D0880090814200
:104D100088BF10820FD23068254B90F82C0081425A
:104D200038BF83F8009006D3B1FBF0FC00FB1C10E9
:104D3000002808BF1D70306890F82C009082FBF7A7
:104D4000EBFD04E00320107201031A4801801A48A9
:104D500090F82C100020FFF755FC2068007A0828F6
:104D600005D0092804BF0120BDE8F88F06E01148EE
:104D70004FF4805101800A48102101800020BDE8D5
:104D8000F88F0000505C0040006000402C81002043
:104D900070800020005C00403081002034810020C1
:104DA0003C810020114F0008A14E0008E94E000888
:104DB000248100203A810020988000202DE9F041D4
:104DC00032480068017811F07F0107D0022901BF45
:104DD000418800290179002905D054E0417A01F089
:104DE000DF01417240E041792A4D21F08004284BD7
:104DF00055F8242011F0800F19BFC2F301121201DF
:104E0000C2F30132120393F800C02346A4453AD9F5
:104E1000002A1CBF807A002835D011F0800F0DD0F9
:104E200055F82400C0F30110012819D11846FBF7EA
:104E30002BFC20463021FFF749FC11E005EB8406EE
:104E40003068C0F3013001280AD14BF68F7774B176
:104E50001846FBF707FC3068384080F4405030605B
:104E60000D480068406980470020BDE8F0810B488C
:104E700090F82C100020FFF7C5FB2868384080F41C
:104E800040502860ECE70220BDE8F0812C81002032
:104E900070800020005C0040348100209880002059
:104EA00010B5074C30B1074800680068804720689B
:104EB0000A3010BD216801200882002010BD0000CA
:104EC0002C81002034810020064A002813685A8A69
:104ED0001EBF0868104470478888801A1882002016
:104EE000704700002C81002010B5074C30B10748F6
:104EF00000688068804720680C3010BD2168012060
:104F00000882002010BD00002C8100203481002088
:104F1000244910B50968F0B12348002202800A78BC
:104F200012F07F0F1BD002F07F02012A04BF1E483F
:104F300010BD022A1CBF002010BD4A7902F00F01EB
:104F400012F0800F194A52F8211020D0C1F301113C
:104F5000012917D01FE002200882002010BD497AE5
:104F600011F0200F03D0027842F00202027011F01B
:104F7000400F017812BF01F0FE0141F00101017004
:104F800009D002E0017841F00101017003E0C1F3B2
:104F900001310129F6D006480068006980470248BF
:104FA00010BD00002C81002026810020005C004004
:104FB000348100200648016889B241F0080101608F
:104FC000016889B241F004010160FBF7A7BD000050
:104FD000405C004000F008BE4FF0E021012803D102
:104FE000086940F0010004E0801C04D1086920F049
:104FF0000100086170470020886170474FF0E02190
:105000000028086902D040F0020001E020F0020010
:10501000086170474FF0E021486170477047704762
:1050200070477047704770477047704770477047C8
:10503000704770477047704770477047704700006F
:1050400070B51B4C0546B12020704E2060700022C8
:10505000A270E27022716271A271E2712272092162
:10506000204600F012FD607221460A2000F09AFAF4
:105070000A281AD104F12001012000F06DFA01285C
:1050800013D12034207879280FD12946102000F040
:1050900089FA102809D12146012000F05DFA012883
:1050A00001BF20787928012070BD002070BD00006C
:1050B000D49E002010B5144CB320092120704C2040
:1050C00060700020A070E07020716071A071E071CC
:1050D0002072204600F0D9FC607221460A2000F0C0
:1050E00061FA0A280DD104F12001012000F034FA00
:1050F000012806D104F120000078792804BF01209E
:1051000010BD002010BD0000D49E002010B540F658
:10511000E44000F095F90C4C7F20214620700120DE
:1051200000F040FA01280DD104F1200100F014FA3A
:10513000012807D104F1200021780078884204BFBB
:10514000012010BD002010BDD49E002070B5114C70
:10515000C322054622703C2060700022A270E270DB
:1051600022716271A271E27122720921204600F05F
:105170008CFC607221460A2000F014FA0A2807D13C
:105180002946082000F0E8F9082804BF012070BD76
:10519000002070BDD49E002070B5114CC22205467F
:1051A00022703D2060700022A270E2702271627154
:1051B000A271E27122720921204600F066FC607241
:1051C00021460A2000F0EEF90A2806D129460120DE
:1051D00000F0C2F9012808BF70BD002070BD0000BA
:1051E000D49E002070B5114CC422054622703B208D
:1051F00060700022A270E27022716271A271E2718D
:1052000022720921204600F040FC607221460A20EB
:1052100000F0C8F90A2807D12946202000F09CF99F
:10522000202804BF012070BD002070BDD49E002046
:1052300070B5114CC122054622703E2060700022DC
:10524000A270E27022716271A271E2712272092170
:10525000204600F01AFC607221460A2000F0A2F9F4
:105260000A2806D12946012000F076F9012808BF56
:1052700070BD002070BD0000D49E002070B5114CA0
:10528000022205462270FD2060700022A270E270AA
:1052900022716271A271E27122720921204600F02E
:1052A000F4FB607221460A2000F07CF90A2807D13D
:1052B0002946022000F050F9022804BF012070BDE9
:1052C000002070BDD49E002010B50F4C212121700C
:1052D000DE216170A070010AE170010C2171000EE5
:1052E00060710020A071E07120720921204600F059
:1052F000CCFB607221460A2000F054F90A2814BF42
:105300000020012010BD0000D49E002010B5194CD3
:10531000C020092120703F2060700020A070E07044
:1053200020716071A071E0712072204600F0ADFB29
:10533000607221460A2000F035F90A2818D141F69A
:105340004C5000F07DF804F12001012000F004F938
:10535000012840F6E44003D000F072F8002010BDB0
:1053600000F06EF804480078792804BF012010BDD1
:10537000002010BDD49E0020F49E002070B5134C78
:105380000D4611212170EE216170A070010AE170BB
:10539000010C2171000E6071A571280AE07116469A
:1053A00023720921204600F070FB607221460A201A
:1053B00000F0F8F80A2807D13146284600F0CCF86A
:1053C000A84204BF012070BD002070BDD49E002003
:1053D00010B5194CB220092120704D2060700020BA
:1053E000A070E07020716071A071E07120722046A1
:1053F00000F04BFB607221460A2000F0D3F80A2827
:1054000018D141F64C5000F01BF804F120010120A6
:1054100000F0A2F8012840F6E44003D000F010F8B4
:10542000002010BD00F00CF804480078792804BF73
:10543000012010BD002010BDD49E0020F49E00204D
:1054400001494861704700000080002070B51D4C84
:105450000D4631212170CE216170A070010AE170EA
:10546000010C2171000E6071A571280AE0711646C9
:1054700023720921204600F008FB607221460A20B1
:1054800000F090F80A281AD104F12001012000F060
:1054900063F8012813D12034207879280FD13146C0
:1054A000284600F07FF8A84209D12146012000F0EB
:1054B00053F8012801BF20787928012070BD002011
:1054C00070BD0000D49E002070B5214C0546B0226E
:1054D00022704F206070A1700021E1702171617114
:1054E000A171E17121720921204600F0CEFA6072AB
:1054F00021460A2000F056F80A2826D141F64C50E1
:10550000FFF79EFF04F12001012000F025F801289B
:1055100040F6E44003D0FFF793FF002070BDFFF793
:105520008FFF0C4C207879280FD12946482000F0B5
:1055300039F8482809D12146012000F00DF801284A
:1055400001BF20787928012070BD002070BD0000C7
:10555000D49E0020F49E00202DE9F0470F4E88468F
:10556000051E77684FF0000488BFDFF834900CD92F
:105570002021484600F05FF850B1484600F0A6F8F8
:1055800008F80400641CAC42F2D32046BDE8F08762
:1055900070687169C01B8842EAD9F6E70080002074
:1055A000004400402DE9F84F1A4E8A46B0F1000839
:1055B00075684FF00004184F88BFA8F1010913D98E
:1055C0008021384600F037F8B0B11AF80410384698
:1055D00000F080F84C4504D14021384600F02BF80B
:1055E00080B1641C4445EBD3384600F06FF88DF869
:1055F00000002046BDE8F88F70687169401B884242
:10560000DED904E070687169401B8842E4D9204605
:10561000BDE8F88F008000200044004070477047CC
:1056200070470029818902D041F4005101E021F442
:105630000051818170470246128800200A4200D042
:105640000120704730B50446008A85B00D464CF6FF
:10565000FF710840E98801432182A0894EF6F311C9
:105660000840A9882A8911436A8902431143A1810C
:10567000A08A4FF6FF410840A9890143A1826846EC
:10568000FCF7A2F81048844201D1039800E0029888
:1056900019214843296864228900B0FBF1F0B0FB6E
:1056A000F2F109010B096FF018056B43322500EB8D
:1056B000830005EB0010B0FBF2F000F00F00084390
:1056C000208105B030BD0000003801408088C0F363
:1056D00008007047C1F30801818070472DE9F04749
:1056E0004E484F4CA4B090F869094FF0000A0028CA
:1056F00078D0FAF7EFFFA4F6841000F66419D0F81A
:105700006409552186B2ADF88060ADF882A0617061
:10571000A4F2D448372828BF372731D33F488DF823
:1057200084703A46D0F864093738C9F80000E6704A
:10573000300AA070BDF882506571280A2071A771E7
:1057400005EB080104F1090000F028FA05F1370023
:10575000ADF8820040229100314800F081F94021EB
:105760000120FEF7A5FF0120FEF7C6FF0120FBF791
:1057700003FC2028FAD12948D0F864093728CDD273
:105780002648D0F8640930B3C2B28DF88420E670A0
:10579000300AA070BDF882506571280A2071174642
:1057A000A27105EB080104F1090000F0F7F9E8190E
:1057B000ADF8820040229100194800F051F94021D3
:1057C0000120FEF775FF0120FEF796FF0120FBF791
:1057D000D3FB2028FAD1114880F869A924B0BDE88C
:1057E000F087FFE794F88A00002804BF24B0BDE8E2
:1057F000F087FAF76FFF7920607040229100084827
:1058000000F02EF940210120FEF752FF0120FEF7A3
:1058100073FF84F88AA024B0BDE8F0875881002087
:10582000DC8A00200448002180F8881080F88A1063
:105830000721017070470000DC8A00202DE9F04349
:10584000354CA3B040224FF4827104F14000FBF7C5
:105850005FFF4FF440510120FEF7F6FE94F841003F
:10586000552807D0792818BF1F2084F8890023B055
:10587000BDE8F083B4F842004FF0000846BAADF836
:105880008060B4F844004FF0010945BAADF8825089
:1058900094F846708DF88470B4F8470040BAADF8BB
:1058A000860094F8880090B1B4F88000B04209D125
:1058B000B4F8820094F884100844A84202D1E81990
:1058C000B0420BD984F8888023B0BDE8F083002D66
:1058D0000EBF84F8889023B0BDE8F083A4F8806000
:1058E0000E48A4F8825084F8847028443A4604F1A3
:1058F000490100F053F9E819B0421CBF23B0BDE8DC
:10590000F0830648C0F8606984F8888080F8689958
:1059100023B0BDE8F0830000DC8A0020588100201D
:105920007047704706480549022201600A72064A1C
:105930000449C0E90112086800470000149F0020D4
:105940002C81002098800020E880002038B50021BC
:105950004FF00060FBF760FC14208DF8000001247C
:105960008DF801408DF802408DF803406846FBF742
:1059700016FC0A208DF800008DF8014000208DF8FB
:1059800002008DF803406846FBF709FC38BD0000B3
:1059900070B52C4E30682C4C608060882B4D298867
:1059A000084010F4806F05D04FF6FF303060284873
:1059B0004068804761882888014011F4005F1CBF5F
:1059C0004DF6FF7131606188084010F4805F05D0AA
:1059D0004EF6FF7030600020FCF7EEFC60882988EE
:1059E000084010F4006F0BD01A48007810B1FFF790
:1059F000E1FA02E00220FCF7DFFC4FF2FF703060BA
:105A000061882888014011F4007F05D04FF6FF51CE
:105A100031602178491C21706188084010F4807F32
:105A200005D04FF6FF6030600720FCF7C5FC6088AA
:105A30002988084010F4004F08BF70BDBDE87040D1
:105A4000FAF700BD445C004032800020388100201D
:105A50009880002010810020FFF79ABFFEE7000029
:105A6000084B521C520803EB410108BF70470378F2
:105A700090F801C0801C43EA0C2321F8043B521E1D
:105A8000F5D1704700600040704702460078002959
:105A900018BF012908D0022908D0012998BF7047F2
:105AA00011F0010F0CD108E0012070475178084433
:105AB000FF2808BF0020F7D1704712F8013F584077
:105AC000491E491008BF70475378584012F8023FEA
:105AD0005840491EF8D17047FEF7E8FE02210F48F2
